:020000041000EA
:1000000000200820490100101B0100108536002047
:100010001101001011010010110100101101001058
:10002000190100101901001019010010A13600205B
:10003000110100101901001021010010230100100E
:100040001101001011010010110100101101001028
:100050001101001011010010110100101101001018
:100060001101001011010010110100101101001008
:1000700011010010110100101101001011010010F8
:1000800011010010110100101101001011010010E8
:1000900011010010110100101101001011010010D8
:1000A00011010010110100101101001011010010C8
:1000B00011010010110100101101001011010010B8
:1000C00011010010110100101101001011010010A8
:1000D0001101001011010010110100101101001098
:1000E0001101001011010010110100101101001088
:1000F0001101001011010010110100101101001078
:100100001101001011010010110100101101001067
:10011000EFF30580103800BE00BE00BE00BE00BE7A
:1001200000BE00BED3DEFFFF42012110FF01000030
:10013000406C0100793512AB4FF000002149086096
:1001400006C881F3088810474FF05040006810B18E
:100150004FF00000F2E70DA40ECC002902D000F011
:1001600012F8F9E71849194A002000E001C191424C
:10017000FCD117498847174988471749884700BE67
:10018000FDE701C901C29A42FBD37047E4010010A8
:1001900010010020403E0120143F0110403E01208C
:1001A000906C0120646D0110000008200000082000
:1001B000646D0110001008200010082000000000ED
:1001C0007047000008ED00E0906C0120B0BC0620F4
:0C01D000710D0120852C0020350D012050
:0801DC0068360110010000006B
:1001E400F8B500BF0348044B834202D0034B03B16C
:1001F40018477047906C0120906C012000000000AB
:10020400064B0749C91A891048BF0131491003D068
:10021400044B0BB101481847704700BF906C012094
:10022400906C01200000000010B5064C237843B9FF
:10023400FFF7D8FF044B13B10448AFF30080012348
:10024400237010BDA86C012000000000403E012076
:1002540008B5044B1BB104490448AFF30080BDE862
:100264000840CDE700000000AC6C0120403E0120B6
:1002740070B5EFF3108672B6124B01221A77124B47
:100284001C685D6841F28833E41845F1000502F00A
:100294006BFC09F06FFD22462B4600200FF070FC2A
:1002A40028B9084B00221A7786F3108870BD0FF026
:1002B40053FB41F28832821841F1000300200FF011
:1002C4005FFCEEE7B0CD0120A06C0120B0F5406FDB
:1002D40001D30020704701207047000008B50020BA
:1002E4000FF0F2FA0FF038FB084BC3E9000108499C
:1002F40000200FF0B1FB00200FF0ACFC0DF0ECFC83
:1003040000F008F803F06CFF08BD00BFA06C0120EA
:10031400A101002010B512200EF098FD13200EF05C
:1003240095FD10200EF092FD11200EF08FFD01219D
:1003340012200EF031FD012113200EF02DFD0121BC
:1003440010200EF029FD052111200EF025FD1123AA
:100354004FF0010242EC44300A4C0B49204610F0A5
:100364006FFF626802F00202084B022159602368A1
:1003740083F0070303F0CF0305490B60054B5A6074
:1003840010BD00BF0000084090D0030000300840BA
:10039400001008400020084008B520B10349044873
:1003A40010F00EFF08BD0349F9E700BF00093D0046
:1003B4000000084090D0030011234FF0010242ECEA
:1003C4004030704711234FF0000242EC4030704738
:1003D40000B583B00190012201A9034813F096FEF1
:1003E40003B05DF804FB00BF0000084000B583B013
:1003F40001230DF10702FF21034813F0B4FE9DF819
:10040400070003B05DF804FB0000084008B54FF492
:100414000073044A1268FF21034813F0A4FE00206D
:1004240008BD00BFA48101200000084008B54FF4B6
:100434000072034B1968034813F068FE002008BDDE
:10044400A481012000000840044B1878044B1B7859
:10045400984214BF00200120704700BF9BBC0620B7
:100464009CBC06200130C0B2102800D07047002088
:10047400FCE7000008B5054B1878FFF7F3FF044BC1
:100484001B78834214BF0020012008BD9BBC0620BA
:100494009CBC062070B505460C46FFF7EBFF60B91F
:1004A400074E3078074B03F8105003EB40035C70A1
:1004B400FFF7D8FF3070012070BD0020FCE700BFBB
:1004C4009BBC0620E8AD012038B50446FFF7BCFF0D
:1004D40050B9064D2878064B33F810302380FFF7C7
:1004E400C1FF2870012038BD0020FCE79CBC062019
:1004F400E8AD01200023024A1370024A13707047CA
:100504009BBC06209CBC06208388C288934204D2EC
:10051400981A00F5807080B27047981A80B27047BC
:1005240008B5FFF7F1FFC0F1FF0080B208BD2DE967
:10053400F0470646894615468488C4F58077BFB2DD
:10054400B846974228BF904600F1080A42460AEB93
:10055400040013F0E1FB4444A4B2B4F5807F04D05A
:10056400AF4204D3B480BDE8F0870024F8E7A5EBDC
:1005740008052A4609EB0801504613F0CDFBACB23E
:10058400F0E72DE9F047064688461546C488C4F5C9
:100594008077BFB2B946974228BF914600F1080A56
:1005A4004A460AEB0401404613F0B6FB4C44A4B29D
:1005B400B4F5807F04D0AF4204D3F480BDE8F08763
:1005C4000024F8E7A5EB09052A46514608EB090083
:1005D40013F0A2FBACB2F0E738B501F00304EFF37B
:1005E400108572B674BB384B1B7873B9364B012235
:1005F4001A70364B1B689A88354B1A8000230360A7
:10060400344A1370FFF776FF0AE085F310882F4B06
:1006140010221A7500225A754FF0FF3011E0013490
:10062400032C0BD804EB44132B4A12F83330002B61
:10063400F5D0E1B20120FFF72DFFF0E785F3108834
:10064400002038BD012C35D10021032928D801EB25
:100654004113214A12F833300BB10131F5E701EBB4
:10066400411402EBC4034FF0010C02F834C0174AE2
:10067400126892885A8000229A80DA8001EB0C0377
:100684000360114B1B7833B9144809F075F985F3ED
:1006940010880020D5E7C9B26046FFF7FBFEF3E7F8
:1006A40085F31088094B10221A7500225A754FF0F1
:1006B400FF30C6E785F31088044B16221A75002212
:1006C4005A754FF0FF30BCE7A0BC0620B0CD012026
:1006D40072BC0620A4BC062070AE0620A1BC062075
:1006E40008B900207047044B13221A7500225A756A
:1006F4004FF0FF30704700BFB0CD012038B5224B1A
:10070400D3F8C840A3B2EFF3108572B633B3E4B2A2
:10071400013CE4B2032C1DD804EB4412D3001B4A61
:10072400D35CBBB1104604EB4413D9000A44002344
:10073400435453809380D380154B1B78FBB91548E1
:1007440009F01AF904EB4414E000104B1844063085
:1007540009F012F985F31088002038BD0C4B1B7882
:1007640013B985F31088F7E70023094A13700A4A7E
:100774001380FFF7BFFE074809F0FEF8F1E72146B2
:100784000220FFF787FEDAE7B0CD012070AE062025
:10079400A0BC0620A1BC062072BC06202DE9F04FA7
:1007A40091B0534BD3F8C860B3B283B19046514B68
:1007B4001B78A3B1F6B2013EF6B2032E17D806EBAE
:1007C40046134D4A12F833308BB100274BE0484BA7
:1007D40009221A7500225A754FF0FF3081E0444B0C
:1007E40020221A7500225A754FF0FF3079E0404BF1
:1007F40009221A7500225A754FF0FF3071E03C4B04
:100804000B221A7500225A754FF0FF3069E0402C14
:1008140028BF4024544528BF5446A4B22246694602
:10082400334BD3F8C0000CF0FDFF00285CD1EFF38C
:10083400108A72B606EB46132F4A12F83330002B97
:1008440040D0224669462846FFF771FEB9F1000FF1
:1008540042D08AF31088264AD2F8C0302344C2F822
:10086400C0303C44A7B2224BD3F8C4309F4237D2A5
:1008740006EB4612204D05EBC2059BB2DB1B9CB276
:10088400EFF3108B72B62846FFF74AFE82462846DD
:10089400FFF73AFE81468BF31088BAF1000FB6D108
:1008A400F7B918F0100FAAD106EB4613124800EB63
:1008B400C3004146063006F089FC0028D3D04FF02F
:1008C400FF300EE08AF31088094B09221A750022C2
:1008D4005A754FF0FF3004E0084809F04DF8B8E7C6
:1008E400384611B0BDE8F08F4FF0FF30F9E700BF94
:1008F400B0CD0120A0BC062070AE0620A1BC06200D
:100904006B4BD3F8C830A0B92DE9F047A2B090469C
:100914009BB28246ABB9664BD3F8C430032B00F2CA
:100924009680634B16221A7500225A754FF0FF30D9
:1009340080E05F4B13221A7500225A754FF0FF3086
:1009440070475B4B09221A7500225A754FF0FF302D
:1009540070E089F310889DF880308DF884309DF81C
:1009640081308DF885300023ADF886300422504B59
:10097400D3F8C01021A80CF07DFF08B9042059E079
:100984004FF0FF3056E0274604EB4413494E06EB84
:10099400C3063046FFF7B8FD60B90135032D4CD8C6
:1009A400454B1C7854FA85F4E4B2032CEBD9043C8F
:1009B400E4B2E8E7631CDBB23F4A1370032B02D9AD
:1009C400134600221A703046FFF79EFD0546384B49
:1009D400D3F8C4801FFA88F8A8F104081FFA88F82D
:1009E4003046FFF79DFD8246454528BF4546ADB2DA
:1009F400A846802D28BF4FF08008424669463046FD
:100A0400FFF7BFFDBAF1000F36D089F31088032336
:100A14008DF884308DF88540ADF886800422244B0F
:100A2400D3F8C01021A80CF025FF00283DD165BBE8
:100A340008F1040022B0BDE8F08718F0100F11D1BE
:100A440089F3108841461D4806F0C0FB50BBEFF304
:100A5400108972B620A8FFF737FD00287FF479AF1C
:100A640055469BE789F31088114B0B221A75002217
:100A74005A754FF0FF30DDE707EB47170D4800EBE1
:100A8400C700063008F078FFBFE7094BD3F8C01061
:100A94004246043168460CF0EDFE0028C8D04FF001
:100AA400FF30C7E74FF0FF30C4E74FF0FF30C1E736
:100AB400B0CD012070AE0620A4BC0620A1BC062047
:100AC40030B40B4C00EB80034FEA830C04EB83033C
:100AD400002544F80C509D60DD608D681D614D68F3
:100AE4005D600B68134344F80C3030BC704700BFA2
:100AF40000800A400022026042608260102242604C
:100B04004FF6FF728260704700EB80008000094B53
:100B14000344084601B110218A4038B106491868D7
:100B240042400A4003F580531A6070474FF6FF7144
:100B3400F5E700BF0C800A400000FFFF10B5044633
:100B4400114B1B7863B1114B1B7840EA004403EB53
:100B540083039B0003F1804303F52823DC6010BD6D
:100B640002460B4B1978094B1878FFF7CDFF094B58
:100B74001B78002BF3D02246074B1978074B1878C3
:100B8400FFF7C2FFEBE700BF97BC062095BC062029
:100B940090BC062092BC062091BC062096BC062080
:100BA400294B1B7803B1704710B588B0274C01233B
:100BB400237004211A200EF0EFF8254B05221A7039
:100BC400244B00221A7023789BB9234B05221A70F8
:100BD400224B00221A70224B01221A701B4B1B78E5
:100BE400A3B11C4B1A781D4B1B789A420CD00122DE
:100BF4000DE004211B200EF0CFF8174B05221A70CC
:100C0400164B01221A70E6E7002200E00022154B81
:100C14001A706C462046FFF76DFF05AB94E8070099
:100C240083E80700FF220792102206920122194648
:100C34000520FFF745FF8020FFF780FF024B0122CC
:100C44001A7008B010BD00BF93BC062092BC0620E9
:100C540095BC062090BC062096BC062091BC0620BC
:100C640094BC062097BC062010B50F490F4C0B68A6
:100C74004A68206864681B1842EB04020B604A60EF
:100C8400002301200EF07CFF00B910BD0EF064FEBD
:100C9400064B5A6819680244034B19605A600023D2
:100CA40001200EF06DFFF0E7906C0120986C01209C
:100CB40008B5114B1B78B3B9104B1B78A3B1104B7B
:100CC40000207D21C3E900010EF046FE0D4B0022F9
:100CD4001A6058600C4901200EF0BEFE064B01223A
:100CE4001A70FFF7C1FF08BD01200EF0EDFD034BA4
:100CF40001221A70E3E700BF98BC06208FBC0620CF
:100D0400986C0120906C01203D0C002038B5EFF365
:100D1400108572B6224B01221A77224B1B78002BC6
:100D240026D0214B1B889BB2002B2FD01E4B1C8836
:100D3400A4B2B4F5006F14BF002401241B4A138825
:100D44009BB21B49C85C13889BB201339BB21380CE
:100D540013889BB2B3F5006F06D0134A13889BB275
:100D6400013B9BB2138005E0134600221A80F4E78E
:100D740080200024FFF7E2FE5CB90A4B1B7863B9BC
:100D8400074B00221A7785F3108838BD8020002491
:100D9400F0E7084808F0F0FDEFE7FFF765FFEFE73D
:100DA400B0CD012098BC06205CBC062062BC0620A5
:100DB400A079012099BC062038B5104B1B7803B9E3
:100DC40038BDEFF3108572B600240C4B1C70012063
:100DD4000EF00AFF214601200EF03EFE084B1B7860
:100DE4002BB98020FFF7AAFE85F31088E8E70120DD
:100DF4000EF080FD024B1C70F3E700BF98BC062088
:100E04008FBC06202DE9F04107460D46164B1C8881
:100E1400A4B2C4F50066B6B2B0468E4228BF884676
:100E2400424601461148204412F076FF4444A4B2DD
:100E3400B4F5006F0BD0AE420BD30B4B1C800C4AA5
:100E4400138815FA83F39BB21380BDE8F081002464
:100E5400F1E7A5EB0804224607EB0801034812F06A
:100E64005BFFA4B2E9E700BF5EBC0620A0790120C5
:100E74005CBC0620F8B9EFF3108272B6174B1B88DE
:100E840023B11749096889888B421CD110B5144BCA
:100E94001B689988114B19800024124B1C80124B3B
:100EA4001C80124B1C8082F31088FFF779FEFFF739
:100EB400FFFE204610BD0A4B13221A7500225A75F4
:100EC4004FF0FF30704782F31088054B10221A75DB
:100ED40000225A754FF0FF30704700BF60BC0620F7
:100EE400B0CD01205EBC062062BC06205CBC06209E
:100EF40008B5EFF3108372B60C4A126891880C4A55
:100F04001288914203D083F31088002008BD002288
:100F140007490A8007490A8007490A8007490A8065
:100F240083F31088FFF748FFEFE700BFB0CD01203F
:100F340060BC06205EBC062062BC06205CBC0620A9
:100F4400F0B5A1B01646394B1B689A88384B1B88FC
:100F54009A4201D1002536E0344B09221A75002249
:100F64005A754FF0FF305BE0304B0B221A750022AC
:100F74005A754FF0FF3053E0802B28BF80239A42EC
:100F840028BF1A4614466946284BD3F8C0000CF013
:100F940049FC002846D1EFF3108772B6234B1B6837
:100FA4009A88234B1B889A422FD121466846FFF723
:100FB40029FF87F310881D4AD2F8C0302344C2F8B1
:100FC400C0302C44A5B2194BD3F8C4309D4226D26C
:100FD4009BB25B1B9BB2EFF3108172B6154A128869
:100FE40092B2C2F5006292B281F31088002AC3D192
:100FF400ADB916F0100FB7D131460F4806F0E6F838
:101004000028E0D04FF0FF300AE087F31088074B48
:1010140009221A7500225A754FF0FF3000E0284665
:1010240021B0F0BD4FF0FF30FAE700BFB0CD012092
:1010340060BC06205CBC062099BC0620014B024A19
:101044001A607047BC6A01201059012010B50211C2
:10105400114B53F82210E1B10A7800F00F0303FB9F
:1010640002F20E4C2280497801FB03F30C490B80F9
:101074000C49B1F9001091FBF3F30B490B700B4BC6
:10108400B3F9003093FBF2F3094A1370094B18804B
:1010940010BD094808F026FEBC6A01206CBC06207D
:1010A4006ABC06205ABC06208ABC062058BC06200E
:1010B4008BBC062068BC06205448012008B501F00A
:1010C4005FF908BD704701207047000008B50A4663
:1010D4000146024813F01AF808BD00BF008008401A
:1010E40010B5044612290DD8052929D305390D292F
:1010F40026D8DFE801F0182634255D6A2525584EE8
:101104002525585311F1030F37D011F1020F2BD0BD
:1011140011F1070F14D105210DF03EFE4FF000032D
:1011240043EC44400CE0002211460DF051FE012234
:10113400002120460DF04CFE4FF0000343EC4040EC
:1011440010BD002211460DF043FE0022012120466D
:101154000DF03EFE4FF0010343EC4040F0E7012365
:10116400834020EE1030EBE74FF0000343EC4400E3
:10117400022000210EF0E0FAE2E74FF0010343EC15
:10118400440003210DF052FE022000210EF0D4FA97
:10119400D6E7002201210DF01BFED1E70122002138
:1011A4000DF016FECCE7002211460DF011FEC7E744
:1011B4004FF0010343EC44004FF0000343EC4000C4
:1011C400022000210EF0B8FABAE7002201210DF046
:1011D400FFFD4FF0000343EC4440022000210EF0D9
:1011E400ABFAADE708B506210F20FFF779FF42F20D
:1011F400107000210EF0A0FA05210F20FFF770FFF8
:1012040042F2107000210EF097FA06210F20FFF72A
:1012140067FF024800210EF08FFA08BD400D03005D
:101224000D234FF0010242EC403070470D234FF084
:10123400000242EC403070472DE9F04F83B0804605
:101244000E4617461D46FFF7F1FF0E244FF0000926
:1012540049EC40402A238DF80430012101A8FFF70E
:1012640035FF4FF0010B4BEC40404FEA28238DF83B
:1012740000308DF801803B128DF802308DF8037038
:1012840004216846FFF722FF49EC40402B238DF8E8
:10129400053059460DF10500FFF718FF4BEC4040AF
:1012A40033128DF800308DF801602B128DF8023066
:1012B4008DF8035004216846FFF708FF49EC4040CD
:1012C4000C9B7BB12C238DF8063059460DF106009A
:1012D400FFF7FCFE0E234FF0010242EC403003B056
:1012E400BDE8F08F2E238DF8073001210DF10700A2
:1012F400FFF7ECFEEEE700002DE9F04F89B0059012
:1013040090469946129F139E5E4BB3F900300B44EE
:101314005D4A82FB03121A44D917C1EB2224C4EBA1
:101324000412A3EB4214594BB3F9005085423DDD3E
:10133400574BB3F900C0A44538DD07FB0802002A67
:1013440034DB09FB07F3E34230D4002C28DB2146CD
:101354000598002826DB013A954200DC6A1E0B44FE
:10136400013B9C4501DC0CF1FF3335148DF81C5016
:1013740035128DF81D508DF81E60149D2D148DF8B6
:101384001850149D2D128DF81950149D8DF81A5073
:1013940001250095FFF750FF0026B346CC4666E0D2
:1013A4000021D5E70020D6E7FFF73AFF09B0BDE8F2
:1013B400F08FD31D1AE0032107A8FFF787FE03E08F
:1013C400032106A8FFF782FE033601342A46BC42F5
:1013D4002FDA551C002AF8DB2C4BB3F90030AB4252
:1013E400F3DB08FB0B921346002AE2DBDB101599B2
:1013F400C95C029B03FB08F39B1A013B03F0070340
:1014040041FA03F313F0010FD5D1149BB3F1FF3F5D
:10141400D6D1337863F3070A727862F30F2AB1786E
:1014240061F3174A8DF818108DF819208DF81A30C9
:10143400C6E709F10109C14501DA0024C7E7039DA4
:10144400049B01351C46BD420DDA631C002CF8DBFD
:101454000F4AB2F900209A42A6DB059A4FF0000920
:1014640003950493E7E7DDF808C00BF1010BE345AE
:1014740004DA00231D46CDF808C0E4E7FFF7D0FEE8
:1014840094E700BF7ABC06208988888858BC062067
:101494005ABC06202DE9F04184B005461746DDF814
:1014A4002880904266D0BD4202DA3A462F4615465D
:1014B400994202DA1A460B461146002FC0F29D806B
:1014C4006A4AB2F90020BA4200DC571E002DC0F26D
:1014D4009680AA4200DC551E654AB2F90060F418F1
:1014E4000E44644BB3F90030B34217DCA34200F35B
:1014F4008880614B83FB04212144E217C2EB212243
:10150400C2EB0212A4EB421483FB06239A19F317CD
:10151400C3EB2223C3EB0313A6EB4316002C7DDBA2
:10152400544BB3F90010A1420ADC534A82FB043243
:101534002244E317C3EB2223C3EB0313A4EB4314AA
:10154400002E70DB0123009333462A462146384699
:10155400FFF772FEED1B013505EB45054FEA284305
:101564008DF80C304FEA28238DF80D308DF80E805D
:10157400002367E0994296D1002873DB3B4BB3F913
:10158400003083426EDD002934DB3A4BB3F900307E
:101594008B420ADC384A82FB01320A44CB17C3EB84
:1015A4002223C3EB0313A1EB4311314BB3F90030F6
:1015B4000B44314A82FB03121A44D917C1EB22218E
:1015C400C1EB0111A3EB4111012300930B463A46F1
:1015D4002846FFF731FE4FEA28438DF80C304FEAD6
:1015E40028238DF80D308DF80E80032103A8FFF712
:1015F4006DFD32E001F5F071C7E7002760E70025D3
:1016040067E7CDF80080F31A2A4600213846FFF731
:1016140041FF184BB3F90060013E7FE7154BB3F966
:1016240000301C447CE70E448CE7144A9DF80C10EF
:10163400D154591C9DF80D005054991C9DF80E006E
:1016440050540333AB42F0DB05E02A460B490C4807
:1016540012F05EFC0134A642F7DA094812F067FC86
:10166400FFF7DEFD04B0BDE8F08100BF58BC0620E2
:101674007ABC06205ABC062089888888586E0120C6
:101684000080084070B584B09C4600F00F0400F060
:10169400F003502B23D00011274B53F8200043783C
:1016A400057890F802E0E64503D8C6787644B44558
:1016B40023DB2249B1F90000009204FB03F305FB8C
:1016C40004021F49B1F90010FFF7E4FE089B23B997
:1016D4001A4A138805FB0433138004B070BDACF1BF
:1016E4002B03DBB2122BD6D8164D25FA03F313F0D5
:1016F400010FD0D0104B1868D1E7ACEB0E0C03FBF4
:101704000CFC05FB0CFCBCF1000F12DB4FEAEC0CEB
:101714000CF1040C604403900292019100942A4657
:101724000749B1F900100548B0F90000FFF7E4FDDE
:10173400CCE70CF1070CE9E7BC6A012054BC062095
:1017440056BC06200500040000B583B0074BB3F96E
:101754000030074AB2F9002000200090013B013A12
:101764000146FFF797FE03B05DF804FB5ABC062060
:1017740058BC062010B582B08DF8070001240E2352
:1017840044EC4030FFF752FD21460DF10700FFF70E
:101794009DFCFFF745FD02B010BD000010B582B0FE
:1017A4008DF807004FF000030E2243EC40200D2477
:1017B40043EC404001220DF10701044812F0A6FC5D
:1017C4004FF0010343EC404002B010BD00800840DC
:1017D40038B505460C463320FFF7E0FF280AFFF72B
:1017E400C9FFE8B2FFF7C6FF0120FFF7C3FFE020FF
:1017F400FFF7C0FF200AFFF7BDFFE0B2FFF7BAFF13
:1018040038BD10B504463720FFF7C8FF200AFFF79C
:10181400B1FFE0B2FFF7AEFF10BD000068B108B53C
:10182400002805DC054812F082FBFFF7F9FC08BD2F
:10183400034B1888FFF7E5FFF4E770470080084082
:101844007ABC062030B583B004464C4BB3F9003063
:101854001B114B4A52F82320937883420FD8D27835
:10186400134498420BDA474BB3F90030464AB2F9B5
:1018740000201344454AB2F90020934208DCA4F145
:101884000803052B6CD8DFE803F00A5C2D6B6B288A
:101894000D20FFF7D7FF0A20FFF7D4FFEFE73A4BFD
:1018A4001988384A13885B1A1BB21380002B17DA85
:1018B400374A1388374800881B1A1BB21380002B41
:1018C40007DB354B1B78013B13FB01F32D4A1380D7
:1018D40006E0134600221A80F3E72A4B00221A80FE
:1018E40003B030BD2B4BB3F90030294A1188194499
:1018F40009B211800B44B3F5A07FF1DBA3F5A0740A
:10190400204BB3F90000214BB3F9002000230093CE
:101914000B190244FFF7BEFDA5B2204A13882B44DD
:1019240099B21BB21380B3F5F07F02DBA1F5F0711D
:1019340011802046FFF772FF154A13885B1B138042
:10194400CEE72020FFF77EFF0E4BB3F900300E4A9E
:10195400B2F9002093FBF2F313F0010FF1D1BFE7CA
:101964000023009323460E4A12680E49096803486F
:10197400B0F90000FFF786FEB2E700BF68BC06209E
:10198400BC6A012054BC06206CBC062058BC06204E
:1019940056BC06206ABC06208BBC06207ABC0620F6
:1019A40050B4012054B4012008B5044B1B7803B98A
:1019B40008BD0846FFF746FFFAE700BFB86A0120F2
:1019C40008B5FFF70FFC864B4FF4A0721A80854BC5
:1019D4004FF4F0721A80F020FFF7E0FEC320FFF707
:1019E400C9FEF020FFF7DAFE9620FFF7C3FE36208B
:1019F400FFF7D4FE4820FFF7BDFE3A20FFF7CEFEE6
:101A04000620FFF7B7FEB420FFF7C8FE0020FFF75B
:101A1400B1FEB720FFF7C2FEC620FFF7ABFEB92028
:101A2400FFF7BCFE0220FFF7A5FEE020FFF7A2FEB1
:101A3400C020FFF7B3FE8020FFF79CFE0620FFF7CF
:101A440099FEC120FFF7AAFE1520FFF793FEC220DE
:101A5400FFF7A4FEA720FFF78DFEC520FFF79EFE2B
:101A64000420FFF787FEE820FFF798FE4020FFF7E9
:101A740081FE8A20FFF77EFE0020FFF77BFE002018
:101A8400FFF778FE2920FFF775FE1920FFF772FE95
:101A9400AA20FFF76FFE3320FFF76CFEE020FFF76C
:101AA4007DFEF020FFF766FE0620FFF763FE0F20A1
:101AB400FFF760FE0520FFF75DFE0420FFF75AFEE6
:101AC4002020FFF757FE3720FFF754FE3320FFF79F
:101AD40051FE4C20FFF74EFE3720FFF74BFE13203C
:101AE400FFF748FE1420FFF745FE2B20FFF742FEC8
:101AF4003120FFF73FFEE120FFF750FEF020FFF713
:101B040039FE1120FFF736FE1B20FFF733FE1120AC
:101B1400FFF730FE0F20FFF72DFE0A20FFF72AFE05
:101B24003720FFF727FE4320FFF724FE4C20FFF762
:101B340021FE3720FFF71EFE1320FFF71BFE1320A4
:101B4400FFF718FE2C20FFF715FE3220FFF712FED8
:101B5400F020FFF723FE3C20FFF70CFEF020FFF7F8
:101B64001DFE6920FFF706FE3520FFF717FE002053
:101B7400FFF700FE1120FFF711FE78200DF0F6FDAF
:101B84002920FFF70BFE14200DF0F0FD2120FFF7B4
:101B940005FE2A20FFF702FE0020FFF7EBFD0020E0
:101BA400FFF7E8FD0120FFF7E5FD3F20FFF7E2FD29
:101BB4002B20FFF7F3FD0020FFF7DCFD0020FFF7EB
:101BC400D9FD0120FFF7D6FD3F20FFF7D3FD2C20E0
:101BD400FFF7E4FD00210846FFF7FAFD08BD00BF4A
:101BE40058BC06205ABC06202DE9F8430A200DF003
:101BF4002DF90B200DF02AF90C200DF027F90D20FA
:101C04000DF024F90E200DF021F90F200DF01EF92E
:101C14004FF00A09012545EC44904FF00B0845ECC0
:101C240044800D2745EC44700E2345EC44300F26C8
:101C340045EC44600C490D480FF002FB2946484628
:101C44000DF0AAF8294640460DF0A6F829460C20C6
:101C54000DF0A2F829460C200DF0D4F845EC4070A4
:101C640045EC4060BDE8F88340787D010080084081
:101C740008B5FFF7B9FFFFF7A3FEFFF7DFF901206F
:101C8400FFF7E4F9034B4FF47F421A60024B002242
:101C94001A6008BD54B4012050B40120074B1A68DF
:101CA400531C03F03F0306490968994205D00549CE
:101CB4008854BFF35F8F014A13607047E8C3012063
:101CC4002CC40120ECC30120094B1B68094A12688B
:101CD4009A4209D0084AD05CBFF35F8F013303F006
:101CE4003F03034A136070474FF0FF30704700BF53
:101CF4002CC40120E8C30120ECC301202DE9C0431A
:101D040085B006460F46904699460DF025FE0B9B7E
:101D1400181841F1000100290DDB029003919DF890
:101D2400283000934B464246394630460FF058FC63
:101D340005B0BDE8C0834FF0FF306FF00041ECE721
:101D440008B50DF009FE4FF47A72002311F0CAFDB4
:101D540008BD000010B50E4B196849000D4B9A6878
:101D64000AB941F288320B4BDB6803B90A4B9A4239
:101D740000D913468A4200D80A469A4200D813462C
:101D8400034A1360054CA361FFF7DAFF206210BD1C
:101D9400FC6A012090CD012020A107005CB801203D
:101DA40010B5064B9B680BB941F28833044A1360A3
:101DB400044CA361FFF7C4FFE06110BD90CD012086
:101DC400FC6A01205CB801202DE9C04385B00646B9
:101DD4000F46904699460DF0BFFD0B9B181841F134
:101DE400000100290DDB029003919DF82830009337
:101DF4004B464246394630460FF00FFC05B0BDE86D
:101E0400C0834FF0FF306FF00041ECE770B586B04F
:101E14000D468DF80F000022ADF81420514B1B68BD
:101E2400EFF3108472B6D3E8CF0F01210028FAD162
:101E3400C3E8401F0028F6D1BFF35F8F4A498B687F
:101E440001338B604FF47A730193009201230DF1F7
:101E54000F021F214548FFF751FF012835D14FF4E8
:101E64007A73019300260096022305AA1F213F4896
:101E7400FFF7AAFF3B4B1B68C3E88F6F84F31088FE
:101E8400022832D19DF814209DF80F309A424AD18D
:101E94009DF815302B70334C2368EFF3108572B620
:101EA400D3E8CF1F01220029FAD1C3E8412F00292A
:101EB400F6D1BFF35F8FFFF773FF23680020C3E8F9
:101EC4008F0F85F3108806B070BD274AD36801339D
:101ED400D360FFF73FFF234B1A680023C2E88F3F0C
:101EE40084F310884FF0FF30EDE71E4C2368EFF3C6
:101EF400108572B6D3E8CF1F01220029FAD1C3E8B6
:101F0400412F0029F6D1BFF35F8F174AD3680133FD
:101F1400D360FFF71FFF2268C2E88F6F85F3108834
:101F24004FF0FF30CFE70F4C2368EFF3108572B604
:101F3400D3E8CF1F01220029FAD1C3E8412F002999
:101F4400F6D1BFF35F8F084AD3680133D360FFF73C
:101F540001FF22680023C2E88F3F85F310884FF009
:101F6400FF30B0E758B801205CB801200C6C0120A8
:101F740070B584B0054609238DF80F300022ADF802
:101F84000C20414B1B68EFF3108472B6D3E8CF0FDB
:101F940001210028FAD1C3E8401F0028F6D1BFF37D
:101FA4005F8F3A490B6801330B604FF47A730193E6
:101FB400009201230DF10F021F213548FFF79EFE09
:101FC400012833D14FF47A7301930026009602233B
:101FD40003AA1F212E48FFF7F7FE2B4B1B68C3E80B
:101FE4008F6F84F31088022830D19DF80C309DF84F
:101FF4000D2043EA02232B80234C2368EFF3108542
:1020040072B6D3E8CF1F01220029FAD1C3E8412FC9
:102014000029F6D1BFF35F8FFFF7C2FE23680020CB
:10202400C3E88F0F85F3108804B070BD174A536856
:1020340001335360FFF78EFE134B1A680023C2E886
:102044008F3F84F310884FF0FF30EDE70E4C236888
:10205400EFF3108572B6D3E8CF1F01220029FAD11D
:10206400C3E8412F0029F6D1BFF35F8F074A5368B5
:1020740001335360FFF76EFE2268C2E88F6F85F369
:1020840010884FF0FF30CFE758B801205CB801202A
:102094000C6C012070B5032107200CF07DFE032198
:1020A40006200CF079FE1D491D480FF06FFA00223E
:1020B400012107200CF08CFE0022012106200CF0E7
:1020C40087FE01200CF05CFF0CF082FF154B1860BA
:1020D4000025154B1D60154B1D60154B1D70154BD0
:1020E4001D60154C24222946204611F095FD41F22D
:1020F4008836124B1E60A661114C202229462046C8
:1021040011F08AFD26600F4B6360A6600E4BE360FE
:10211400042323610D4B01221A7070BD801A06003E
:102124000C6C012058B80120E8C301202CC4012004
:10213400A6BC0620B4AD01205CB80120FC6A0120D5
:1021440090CD012090D0030020A107009DBC062063
:1021540010B582B0524B1C78032C30D8DFE804F061
:1021640002395B7D0DF107010B20FFF74FFE30BBF9
:102174009DF807309DF90720002A28DB03F07F0330
:10218400642B00D96423474A1168EFF3108072B6B8
:10219400D1E8CFEF5FF0010CBEF1000FF8D1C1E838
:1021A4004ECFBEF1000FF3D1BFF35F8F3E490B70EA
:1021B4004C7012680023C2E88F3F80F31088384ABD
:1021C4001378013303F00303137002B010BD01242C
:1021D400D4E70DF107010120FFF718FE0028EED126
:1021E400304B1A68EFF3108172B6D2E8CF4F01205A
:1021F400002CFAD1C2E8440F002CF6D1BFF35F8F54
:102204009DF80700284A10711A680023C2E88F3F1E
:1022140081F31088D3E70DF107010520FFF7F6FDE0
:102224000028CCD11F4B1A68EFF3108172B6D2E8A4
:10223400CF4F0120002CFAD1C2E8440F002CF6D174
:10224400BFF35F8F9DF80700174A90701A68002348
:10225400C2E88F3F81F31088B1E70DF107010A202E
:10226400FFF7D4FD0028AAD10E4B1A68EFF31081B2
:1022740072B6D2E8CF4F0120002CFAD1C2E8440F45
:10228400002CF6D1BFF35F8F9DF80700064AD0708B
:102294001A680023C2E88F3F81F310888FE700BFDC
:1022A400A6BC062058B80120006B0120304B1B78D7
:1022B400002B5BD030B583B02E4B1B68E3B1EFF33A
:1022C400108272B6D3E8CF0F01210028FAD1C3E8F7
:1022D400401F0028F6D1BFF35F8F274B1D6905B956
:1022E4000425244B19680023C1E88F3F82F310882A
:1022F400202D03D8002407E00425FBE72025F9E777
:102304001E4B00221A600134A5422DD90023ADF8DA
:1023140006300DF10600FFF72BFE002824DBBDF884
:10232400060008B34AF203539842E9D04AF2025332
:10233400984215D0C3B2012BE5D1000AA0F1A10344
:10234400042BE0D9A0F16103192B03D80B4B1B68B4
:1023540003B16038FF28D6D8C0B2FFF79FFCD2E79C
:10236400064B01221A60CEE703B030BD704700BFB0
:102374009DBC062058B8012090CD0120B4AD0120A9
:1023840008B5FFF7A1FC08BD0346134A1278E2B171
:10239400124A1268CAB1EFF3108C72B6D2E8CF0FAA
:1023A40001210028FAD1C2E8401F0028F6D1BFF36A
:1023B4005F8F0B4A03CA18605960084B1A680023E0
:1023C400C2E88F3F8CF3108870474FF0FF321A60D9
:1023D4005A6000225A7070479DBC062058B80120EC
:1023E400006B012030B585B061F07F018DF80C10D1
:1023F4008DF80D201C4B1B68EFF3108572B6D3E8E3
:10240400CF1F01220029FAD1C3E8412F0029F6D1B8
:10241400BFF35F8F154A1369013313614FF47A7365
:10242400019300230093022303AAC1B21048FFF7CB
:1024340065FC0446022811D00C4A536901335361E8
:10244400FFF788FC084B1A680023C2E88F3F85F326
:102454001088022C05D1184605B030BDFFF7A0FC4A
:10246400F0E74FF0FF30F7E758B801205CB80120DF
:102474000C6C012010B50446024605211F20FFF70D
:10248400B1FFD0B90D4B1A68EFF3108172B6D2E8E0
:10249400CFEF5FF0010CBEF1000FF8D1C2E84ECFD0
:1024A400BEF1000FF3D1BFF35F8F054A94701A6831
:1024B4000023C2E88F3F81F3108810BD58B8012073
:1024C400006B012010B5044602460A211F20FFF7C5
:1024D40089FFD0B90D4B1A68EFF3108172B6D2E8B8
:1024E400CFEF5FF0010CBEF1000FF8D1C2E84ECF80
:1024F400BEF1000FF3D1BFF35F8F054AD4701A68A1
:102504000023C2E88F3F81F3108810BD58B8012022
:10251400006B012008B520B10246052802D8062226
:1025240000E006220E211F20FFF75CFF08BD08B55E
:10253400024600B9012208211F20FFF753FF08BDFE
:10254400104B1B78D3B1104B1B68CBB1EFF3108247
:1025540072B6D3E8CF0F01210028FAD1C3E8401F97
:102564000028F6D1BFF35F8F084B1868064B196833
:102574000023C1E88F3F82F31088704704487047F6
:10258400034870479DBC062058B80120FC6A01200E
:1025940020A1070010B50446174B1B78002B23D04D
:1025A400164B1B6803B3EFF3108E72B6D3E8CF1F3C
:1025B40001220029FAD1C3E8412F0029F6D1BFF343
:1025C4005F8F84460E4C0FCCACE80F000FCCACE808
:1025D4000F002368CCF80030084B1A680023C2E8C7
:1025E4008F3F8EF3108810BD24220021204611F065
:1025F40013FB044BA361F6E79DBC062058B80120E9
:102604005CB8012020A1070010B504461A4B1B78C2
:102614000BB31A4B1B68F3B1EFF3108E72B6D3E809
:10262400CF1F01220029FAD1C3E8412F0029F6D196
:10263400BFF35F8F8446124C0FCCACE80F0094E8D4
:102644000F008CE80F000D4B1A680023C2E88F3F7F
:102654008EF3108810BD20220021204611F0DCFAF0
:1026640041F288332360074A6260A360064BE3604B
:1026740004232361EEE700BF9DBC062058B8012067
:1026840090CD012090D0030020A107003C4B1B7883
:10269400002B5FD030B589B03A4B1C68002C5CD05D
:1026A400EE468446BCE80F00AEE80F009CE80F003D
:1026B4008EE80F00009BB3F57A7F51D3019A42F262
:1026C4000F739A424FD9029BB3F57A7F4ED3039A84
:1026D40093424ED82C4B9A424ED808B90423049303
:1026E400049B202B01D920230493EFF3108572B6A9
:1026F400D4E8CF2F0123002AFAD1C4E8423F002AAC
:10270400F6D1BFF35F8F214CA446EE46BEE80F001E
:10271400ACE80F009EE80F008CE80F00A3681C4A89
:102724001268934201D91A4A1360184BDB68184A9D
:102734001268934201D2164A1360154B1A68154B5E
:102744009A61104B1B680020C3E88F0F85F3108833
:1027540009B030BD4FF0FF3070474FF0FF30F7E75E
:102764004FF0FF30F4E74FF0FF30F1E74FF0FF3068
:10277400EEE74FF0FF30EBE74FF0FF30E8E700BF44
:102784009DBC062058B80120404B4C0090CD012040
:10279400FC6A01205CB80120134B1B78EBB1134B8E
:1027A4001B68EBB1EFF3108272B6D3E8CF0F0121AF
:1027B4000028FAD1C3E8401F0028F6D1BFF35F8F89
:1027C4000B4B186808B941F28830084B196800238C
:1027D400C1E88F3F82F31088704741F28830704718
:1027E40041F28830704700BF9DBC062058B80120D4
:1027F40090CD0120114B1B78E3B1114B1B68DBB169
:10280400EFF3108272B6D3E8CF0F01210028FAD17A
:10281400C3E8401F0028F6D1BFF35F8F094B586807
:1028240000B90948064B19680023C1E88F3F82F3B9
:102834001088704704487047034870479DBC0620C1
:1028440058B8012090CD012090D0030070470000BB
:10285400074B01229A730020D873064A40F6BF71D1
:10286400D1814FF0020C83F810C058741182704764
:1028740090BB0620C4B206204FF0010C8C451CDC32
:1028840000B508E00D4B4FF4486C23F812C0013238
:10289400F4468E450FDC0CF1010E094B03F812C00F
:1028A40003EB420358700128ECD0044B40F6BF7C84
:1028B40023F812C0EBE75DF804FB7047C4B20620AE
:1028C40090BB062070B5544B1B68D3B1002501237F
:1028D400082B18DC5A1E02EB4212504901EB82010C
:1028E4004F4803EB430400EBC4029160516040F88D
:1028F40034108421D16000211161422151610133DE
:10290400E6E70125E3E7002114E001F10903454A64
:1029140052F82140424A03EB430C02EBCC008460A2
:10292400446042F83C408424C4600024046142238F
:10293400436101310F29E8DD0023072B08DC03F193
:102944000901394A4FF4486022F811000133F4E7D1
:102954002DB9FFF77DFF304B08221A6070BD0CF0D3
:10296400FBFF324C041941F10006002E0EDB0CF083
:10297400F3FF201A66EB0101012871F100010ADB63
:10298400012001F075F80028F1D005E04FF0FF3484
:102994006FF00046EBE700254DB3012204211046F9
:1029A400FFF76AFF052201210020FFF765FF0622D9
:1029B40001210220FFF760FF0CF0CEFF1C4C04192C
:1029C40041F10005002D0DDB0CF0C6FF201A65EB6C
:1029D4000101012871F10001F6DA1649164804F0E4
:1029E40061FEB6E74FF0FF346FF00045ECE70222DA
:1029F40001210020FFF740FF012211460220FFF7CA
:102A04003BFF032204210020FFF736FF0B490A484D
:102A140004F048FE9DE700BFA4BB0620F8B20620E0
:102A240038B9062094630120C4B20620404B4C0000
:102A340080841E00744801207848012094480120B5
:102A440008B5FFF727FBFFF713F9FEF77DFE00F04B
:102A5400B4FB01F055F8FFF735FF08BD08B5034690
:102A6400074A12F8100048B102EB43035B7803EB0A
:102A74008303044A52F82330C9B2984708BD00BF03
:102A840090BB0620086B012008B50346084A12F8DB
:102A9400100050B102EB43035B7803EB8303054A58
:102AA40002EB83035B68984708BD0220FCE700BF84
:102AB40090BB0620086B012010B50446114B1B681F
:102AC4005BB90A2804D0E1B2012000F07BFB10BD01
:102AD4000D21012000F076FBF5E70A2808D001203B
:102AE400FFF7D2FF0128FAD12146FFF7B7FFEEE73F
:102AF4000120FFF7C9FF0128FAD10D21FFF7AEFF2E
:102B0400EDE700BFA4BB06200120704708B50346CB
:102B1400074A12F8100048B102EB43035B7803EB59
:102B24008303044A02EB83039B68984708BD00BFF4
:102B340090BB0620086B0120704700000A46084B32
:102B440013F8101059B110B503EB40035B7803EB95
:102B54008303044C04EB83031B69984710BD70473F
:102B640090BB0620086B012038B5012400E0013435
:102B74000F4B1B68A3421ADB0E4B13F81430002BC7
:102B8400F5D00C4B03EB44035D7805EB85020A4B4F
:102B940003EB8203DB68074A12F814009847011E0E
:102BA400E5DB20460AF000FD0028EED1DFE738BD62
:102BB400A4BB062090BB0620086B012038B50C4648
:102BC4000179172904D0084804F06CFD012038BDB0
:102BD4000568254428460AF08CFE294620440AF05C
:102BE40093FE0020F3E700BF9848012070B582B03F
:102BF40004460169384804F055FD636B0093236B68
:102C0400E26AA16A354804F04DFD636A0093236AC1
:102C1400E269A169324804F045FDE3680093A368C2
:102C2400626821682F4804F03DFD636C0193236CB6
:102C34000093E36B6269A16B2B4804F033FD2B48CE
:102C440004F0E2FA4FF0E025D5F8280D04F064FC16
:102C5400274804F0D9FAD5F82C0D04F05DFC25487A
:102C640004F0D2FAD5F8300D04F056FC224804F0F2
:102C7400CBFAD5F8340D04F04FFC204804F0C4FA24
:102C8400D5F8380D04F048FC1D4804F0BDFAD5F819
:102C94003C0D04F041FC1B4804F0B6FA1A4DA5F5AE
:102CA400C06605F5FD332A463146184804F0FAFC9F
:102CB4002B46A5F597623146154804F0F3FCE16B09
:102CC400226CB36B0093336B521B491B114804F005
:102CD400E9FC114807F006F8B8480120E048012053
:102CE400FC48012018490120344901205849012099
:102CF400644901206C490120744901207C49012068
:102D0400844901203C4F0120B0D301208C4901208B
:102D1400B0490120C8490120F849012070B5044692
:102D2400436813F8023C0A4D6B72C3682B62036953
:102D34006B624369AB628369EB6201262E7207F012
:102D440025FA2E722B69E360B5F91430236170BD46
:102D5400B0CD012008B5FFF773FE0C4B4FF402729F
:102D64001A800B4B4FF49B721A8019200CF06EF8EA
:102D740019234FF0010242EC443042EC4030EFF3AF
:102D8400108372B607F040FB002008BD7EBC06200D
:102D94007CBC0620704770477047704708B50EF03A
:102DA4004BF90022114610460DF066F908BD0000EB
:102DB40008B501200CF0DAFC0EF03EF9024BD3E921
:102DC40000010CF0ABFCF9E78067012000290DDB62
:102DD40070B10D4B98420DD343180B4A1268526DD3
:102DE400934200D9111A61B9084604E04142EFE761
:102DF400002000E00020044B0E221A7500225A75B0
:102E040070470846704700BFB0CD012008B50022C6
:102E1400FFF7DCFF08BD08B50122FFF7D7FF08BDA7
:102E240010B58AB00C460138082800F21A81DFE890
:102E340010F009000D00250057006D008300A30069
:102E4400D600F700002108460DF075F90821204648
:102E5400FFF7E1FF20B94FF0FF3420460AB010BD60
:102E640001A8FFF791FA0822214601A80AF002FD01
:102E740004460028F1D04FF0FF34EEE7012120464C
:102E8400FFF7C4FF10B94FF0FF34E6E7012201A9B0
:102E940020460AF0C7FC0446F8B99DF80430642BB8
:102EA40007D9744B16221A7500225A754FF0FF3455
:102EB400D3E7C3EB032080B26F4BA3FB0030C0F316
:102EC4004710FFF7D7FA0028C7DA6A4B05221A75AC
:102ED40000225A754FF0FF34BFE74FF0FF34BCE7D0
:102EE40024212046FFF797FF10B94FF0FF34B4E7D1
:102EF40001A8FFF74FFB2422214601A80AF0BAFCDF
:102F040004460028A9D04FF0FF34A6E7202120462C
:102F1400FFF781FF10B94FF0FF349EE701A8FFF7D8
:102F240073FB2022214601A80AF0A4FC04460028D1
:102F340093D04FF0FF3490E720212046FFF766FF3F
:102F440010B94FF0FF3488E7202201A920460AF087
:102F540069FC044610B14FF0FF347EE701A8FFF787
:102F640095FB0028BFF679AF424B16221A75002252
:102F74005A754FF0FF3470E701212046FFF746FFF2
:102F840010B94FF0FF3468E7012201A920460AF086
:102F940049FC044600BB9DF80430642B07D9354B2B
:102FA40016221A7500225A754FF0FF3455E7C3EB09
:102FB400032080B2304BA3FB0030C0F34710FFF76F
:102FC40081FA0028BFF649AF2A4B05221A75002260
:102FD4005A754FF0FF3440E74FF0FF343DE70121CD
:102FE4002046FFF713FF10B94FF0FF3435E70122F5
:102FF40001A920460AF016FC044610B14FF0FF3434
:103004002BE79DF80400FFF785FA0028BFF625AFEB
:10301400184B05221A7500225A754FF0FF341CE72D
:1030240001212046FFF7F2FE10B94FF0FF3414E7F8
:10303400012201A920460AF0F5FB044610B14FF025
:10304400FF340AE79DF80400FFF771FA0028BFF681
:1030540004AF084B05221A7500225A754FF0FF344D
:10306400FBE6044B16221A7500225A754FF0FF3402
:10307400F3E600BFB0CD01201F85EB5182B08C4632
:10308400184B984214BF00230123174A32F9133016
:103094008B4205D08DF807C000210DF107021CE01A
:1030A4000D238DF8073000210DF107020029F1D11D
:1030B400836913F0200FFBD1134613F8012B026030
:1030C40001311A46F2E7836913F0200FFBD113464E
:1030D40013F8012B026001311A460029F3D002B023
:1030E400704700BF00800740A8BB06202DE9F041CF
:1030F4000F4616461D46DDF8188080B3204C4FF469
:10310400E13120460CF05AFE022138460BF044FE11
:10311400022130460BF040FE002120460CF03CFE1C
:10312400012120460CF031FE002D1ADCB8F1000F0D
:103134001CDC04F13002002D1DDD4FF40043B8F116
:10314400000F1ADD4FF480410B43216B4B4003F415
:10315400404302F5805213602046BDE8F081094CDB
:10316400CDE7022100200BF017FEDFE7022100204B
:103174000BF012FEDDE70023E1E70021E4E700BFE6
:10318400008007400000074000B583B040B90090BC
:10319400034601220146FFF7A9FF03B05DF804FBD3
:1031A400092300930823072206210120FFF79EFF2D
:1031B400F3E708B50CF09AFD08BD08B50020FFF749
:1031C400E3FF08BD08B5012807D00548836913F05B
:1031D400200FFBD1FFF752FF08BD0248F6E700BFFE
:1031E400008007400000074070470000012807D016
:1031F400044B9B6913F0200F0CBF01200020704783
:10320400014BF6E70080074000000740012806D084
:10321400054B9A6912F0100F03D118687047034BDD
:10322400F7E74FF0FF307047008007400000074089
:10323400F8B505461646481EFFF7A6FF044626BB0A
:10324400184800EB4510038903F00F01164A52F8A1
:103254002110F9B113F0400F20D10127C3F3011558
:10326400053513F4807F1BD1002613F4007F00D0B2
:10327400022620460CF04AFD33463A4629462046AB
:103284000CF06DFDF8BD09F0FBFCA36913F0800F91
:10329400F9D0D5E72046FFF78CFFF3E70227DDE7F7
:1032A4000126E2E718B70620D4630120034660B183
:1032B400426D32B9064A02F500714165A2F5C06259
:1032C4005163586D034BC01A70470020704700BF0C
:1032D400B0D30120B0CD012008B5FFF7E7FF00F619
:1032E400FF70000B08BD00008446002300E001339A
:1032F4004C2B0ADC064A02EB430012F81320624509
:10330400F5D142788A42F2D170470020FCE700BF31
:103314000079012008B5064BC01A4011054B03FB88
:1033240000F0C0B20E2800D808BD034806F0DAFC4D
:10333400B4A50620ABAAAAAA084A012038B50446B7
:10334400FF210846FFF7D0FF054640B9012120467A
:1033540007F026FA0028F3D1024804F0A3F928461E
:1033640038BD00BF144A012010B50446FFF7D2FF50
:10337400002300E001334C2B0DDC084A12F8132023
:103384009042F7D1054A02EB430CFF218CF801105F
:1033940002F81310EEE70023238310BD0079012007
:1033A400F8B50F4B1B68834216D00546FFF794FF10
:1033B40006462846FFF7AEFF07460024B44207DA64
:1033C4002846FFF7BBFF48B1077044700134F5E7A6
:1033D40001232B830020F8BD0020FCE70C20FAE732
:1033E400B0CD01200023184601E0013001334C2BFD
:1033F40005DC044A12F81320FF2AF6D1F6E7800010
:10340400704700BF0079012008B59A22FF210348C4
:1034140010F002FC024B00221A6008BD0079012062
:10342400B0CD01202DE9F04383B004461D4B18684C
:10343400FFF770FF81462046FFF76CFF8046204669
:10344400FFF74AFF07460026BE4227DAF4B22146B8
:103454004846FFF749FF054621464046FFF744FF2B
:103464000446C5B1B8B1104BE91A4910C31A5B1030
:103474000C484FF4805200EB013100EB033010F0A4
:103484004BFC2B88ADF8043023882B80BDF8043026
:1034940023800136D8E7054806F024FC03B0BDE8D4
:1034A400F08300BFB0CD0120007901202C4A012017
:1034B400030A08D0082B01D000207047C0B20128AD
:1034C40003D000207047012070470120704700009E
:1034D4002DE9F04782B0038BE3B18146224B1A8871
:1034E4004FF6FF739A423BD007F0C4F803B2B3F12E
:1034F400FF3F37D01FFA80FA4FEA0A281FFA88F8EC
:103504004846FFF707FF07464846FFF7E5FE06462D
:1035140000251BE0154806F0E5FBE9B23846FFF745
:10352400E3FE0446124BC31A5B1001220092114AB7
:1035340002EB03334FF4805208EBC5010A480088BC
:1035440007F006F9FF23637023700135B542E4DB0D
:103554000020A9F81800A9F81AA002B0BDE8F08765
:103564000C20FAE70C20F8E7446B01203C4A0120C8
:1035740000790120B0CD01202DE9F04383B0064647
:103584000F02BFB2FFF7C6FE81463046FFF7A4FE26
:103594008046002517E03046FFF7D0FE04460E4B68
:1035A400C31A5B10012200920C4A02EB03334FF45E
:1035B400805207EBC5010A48008807F08BF884F8AD
:1035C4000090657001354545E5DB01233383002315
:1035D400738303B0BDE8F08300790120B0CD0120EE
:1035E400446B01202DE9F04383B00446038B4BB1B7
:1035F4002046FFF78FFE80462046FFF76DFE81468A
:1036040000241DE0418BFFF7B7FFF1E703EB440310
:103614005B78A3421ED112E01A4806F063FB4FF414
:103624008052284606F01AF9174B33F81420ADF8E7
:103634000420328823F81420BDF804303380013488
:103644004C451CDA114D05EB04350F4B13F814707F
:10365400B845DBD0E1B24046FFF746FE06460028F7
:10366400DAD0094BC31A5B10084901EB0331FF2F71
:10367400D5D14FF48052284610F04EFBD4E703B066
:10368400BDE8F0832C4A012000790120B0CD01204F
:103694002DE9F0410D461C4B1F683846FFF71CFE10
:1036A4000446804605F5AF551F352D133846FFF700
:1036B40031FE0646A54222D3A54213D9AC4211DA03
:1036C4003846FFF73BFEE0B1067044700134F5E77D
:1036D400E1B23046FFF708FEFF2343700370013464
:1036E4004445F5D3084B03EB05327A655A63AD00C4
:1036F400BD653846FFF776FF0020BDE8F0812C4613
:10370400EEE70C20F9E700BFB0CD01200E4981425D
:1037140017D810B504460B685B6D834201D90020AD
:1037240010BD411A0020FFF7B3FF0028F8D0064B64
:103734001B685A6DA21A9988044803F0B3FF0C2041
:10374400EEE71620704700BFB0CD01204C4A01209F
:1037540030BF7047EFF305806946F3B440464946ED
:1037640052465B460FB4684633498D46FFF73EFA2E
:103774000698324908603248069070470FB4604694
:103784002E49096803B568462E498D4601B4FFF7F2
:10379400C5FA01BC854606F039F80DBC9E46844640
:1037A40003BC02B09746E0B541464A4653465C46E0
:1037B40065463EB401B424496A468A6106F0A0FA1B
:1037C4001D498D46041CFFF70DFFBFF36F8F0120C9
:1037D40020701D4881698D4600201C49088001BC69
:1037E4003EBC884691469A46A346AC46E0BDE0B549
:1037F40041464A4653465C4665463EB4818802B417
:1038040011496A468A6103B46C460B498D46FFF739
:1038140009FEBFF36F8FA54603BC06F0CBF800206A
:103824000A49088001BC00203EBC884691469A465D
:10383400A346AC46E0BD000000200820ACBC062036
:10384400AC360020B0D30120B0CD012082BC0620CC
:1038540010B5164B1A68EFF3108472B6D2E8CFEFA6
:103864005FF0010CBEF1000FF8D1C2E84ECFBEF1FB
:10387400000FF3D1BFF35F8F5C60827C0F2A0CD8FA
:10388400437CC1540133594203F00F0301F00F018B
:1038940058BF4B42437401328274044B19685B680D
:1038A4000022C1E88F2F83F3108810BDACAD012036
:1038B40010B50346154A1068EFF3108172B68C46B2
:1038C400D0E8CF4F5FF0010E002CF9D1C0E844EFEF
:1038D400002CF5D1BFF35F8F5160987C70B11A7CD6
:1038E40013F802E00132514202F00F0201F00F011D
:1038F40058BF4A421A74013898747046034B1A68C8
:103904000023C2E88F3F8CF3108810BDACAD0120BA
:103914002DE9F04782B0002108460FF039FC0CF085
:103924001BF8074689460646884666E00134032CA0
:1039340022DCE5B228460FF0A9F90028F6D004EB02
:103944008402C4EBC202374B134493F82530002B96
:10395400ECD010461030334B18440330FFF7A8FF67
:103964008DF8070001220DF1070128460FF06CF9CC
:1039740028460FF007F9D9E7002406E04FF0FF319D
:10398400C9B22846FFF764FF0134032C1ADC5FFA3E
:1039940084FA50460FF0D0F80028F5D004EB8405E3
:1039A400C4EBC5051F4B1D44AB7C0F2BECD8012287
:1039B4000DF1070150460FF0CBF80028DED09DF83A
:1039C4000710DDE70BF0C8FF04460D46C31B61EB8F
:1039D4000903002B18DAA31B65EB0803002B0CDB8F
:1039E400FEF7B6FBFEF7ACFD0646FEF703FF864284
:1039F40000D80646361945F1000800214FF0FF3083
:103A04000EF0DAFD002492E7FEF750FCFEF798FD75
:103A14000746FEF7C1FE874200D807463F1945F125
:103A24000009D8E7ACBB062008B5013800EB8003D9
:103A3400C0EBC300044B1844837C13B1FFF738FF79
:103A440008BD4FF0FF30FBE7ACBB0620013800EBAC
:103A54008003C0EBC300054B034493F825300F2BC0
:103A640001D9002070470120704700BFACBB06207D
:103A7400064B1B6823B128B1042805D900207047E0
:103A840000207047002070470120704748BC062082
:103A940038B504460D462046FFF7D8FF0128FAD171
:103AA400013C04EB8403C4EBC30404F11000064B93
:103AB40018440330234493F825300F2B00D938BD24
:103AC4002946FFF7C5FEFAE7ACBB0620013800EB38
:103AD4008003C0EBC300034B0344012283F8262078
:103AE400704700BFACBB0620014B01221A6070472F
:103AF40048BC0620014B00221A60704748BC0620CF
:103B040008B503480BF000FE02480DF031FB08BD78
:103B1400ACAD01204138002010B5044640F23653C4
:103B2400984227D008460222154909F07BFEB0F1DD
:103B3400FF3F16D0124B18781B2813D840F231538C
:103B44009C4219D10BF082F90D4B1A784FF0010108
:103B540041EC44205B78003B18BF012343EC402038
:103B6400002010BD074B13221A7500225A754FF01E
:103B7400FF30F6E71C20F4E74FF0FF30F1E700BF19
:103B84004CB40120B0CD0120004870473C650120B1
:103B9400004870472864012060B9104B40F2094284
:103BA4005A80012301335B009BB20C4843F44073F9
:103BB4000380704704280ED8094A52F820000023D5
:103BC400122BEFD8C25C002AECD00133034921F850
:103BD4001320DBB2F4E70020704700BFB8AD01202A
:103BE400146401200FB400B583B004AB53F8042B64
:103BF40001937AB1084C019BA02120460DF0E0F816
:103C0400064803F001FB204603F0FEFA044803F0E3
:103C1400FBFAFEE7034AEDE7EC830120A84A012002
:103C24000C590120A04A012010F00F0007D10F4BBE
:103C3400DA689B681B699A4213D2002070470B4ACA
:103C4400D3689268411E133052F8200083420AD28E
:103C5400043102EB810252681344044AD360002009
:103C64007047012070470120704700BFA4810120E4
:103C740010B5044602098C20244B00FB0233244A6D
:103C84009360117101290AD002290FD091B1214BFF
:103C940005221A7500225A754FF0FF3010BD092015
:103CA40003F0B6F930B14FF0FF30F7E71A4B1A883A
:103CB400174B5A71174AD2F80811154B1982D2F8CA
:103CC4000011D960D2F80C211A602046FFF7ACFF2E
:103CD4000028DCD100240E4B1B8AABB10C4B9B6833
:103CE4005B68984701460028D1D0094B188A8AB2EC
:103CF400801A1882224494B21A6802EB41221A6094
:103D0400DA680A44DA60E6E76002C7E7B8810120AE
:103D1400A4810120B0CD012086BC0620030900F057
:103D24000F013F2813D80F4A8C2000FB032212698D
:103D34006AB1A1B1013903EB8303C3EBC3030B44A1
:103D44001433084A52F823300BB100207047064B55
:103D540013221A7500225A754FF0FF307047002065
:103D6400704700BFB8810120B0CD012008B5034BD6
:103D740001229A74FFF77CFF08BD00BFA4810120D3
:103D840008B5034B00229A74FFF772FF08BD00BF09
:103D9400A481012070B582B004460B461146060981
:103DA4004FF08C0C1E4D0CFB06551E4EB56040F2B8
:103DB400071C63451DD044F20312934205D0B3F5AA
:103DC400837F06D04FF0FF301DE0AB680BB39847FC
:103DD40019E0EB68FBB1084609F041FD114BD860CE
:103DE4002046FFF721FFC0B90E4B9B68DB6898475C
:103DF40009E010F00F0408D12B69019304220DEBA4
:103E0400020009F037FD02B070BD133455F82430B8
:103E1400F3E70020F7E70020F5E74FF0FF30F2E783
:103E2400B8810120A481012008B50648064B9842B8
:103E340003D843682BB18C30F8E7044803F0E4F965
:103E4400002008BDB88101205C830120BC4A012008
:103E540008B5084BC31A9B10074A02FB03F3074A31
:103E6400906003F1610000F015F80A20FEF724FECB
:103E740008BD00BFB88101208BAFF88AA48101205E
:103E8400034B06221A7500225A754FF0FF30704713
:103E9400B0CD01202DE9F04781460146414803F0A9
:103EA40001FC03F0E5FA06463F4B01229A74002711
:103EB4001F711860DF603D46BA464DE03A4BD3F8B7
:103EC4000CA03A4803F0A0F9042556E00F2B29D0A2
:103ED400852B27D004F11C0306EB0313D3F806103B
:103EE400314A906841442A1D00EB82025160D3F8A4
:103EF4000A2005F1140340F8232001352A464946D7
:103F04002B4803F0CFFB0134032C21D80E2D1FD8EE
:103F140006EB041393F8C231052B03D0D6D8002B3B
:103F2400F1D0D7E704F11C0306EB0313D3F80630F2
:103F340053441D4AD360032DE5D804F11C0306EB5A
:103F44000313002202219972DA721A735A73C1E7B9
:103F54000137154BDB68B3B1134B01221A829B68FE
:103F64005B68984778B1B6F8FE214AF655239A4221
:103F740009D1312F07D8012FA0D00B4BD3F80C80D7
:103F84000024DC60C0E7BAF1000F01D0032D04D88F
:103F9400304603F0BEF9BDE8F087064803F034F973
:103FA400F6E700BFCC4A0120A4810120D44A0120B5
:103FB400D84A0120E04A012070B582B0FCF7FCF930
:103FC4000020FCF7E9F9142402E0FCF70FFA013CA5
:103FD400002CFAD10021402000F03AF9012804D045
:103FE40000F008F9204602B070BD142008F06CFE01
:103FF40005464FF4D571482000F02AF901284CD128
:10400400264607E0FCF7F2F906F108036B4403F8CF
:10401400040C0136032EF5D99DF80630012B16D178
:104024009DF80730AA2B5CD1284608F061FE30B910
:104034004FF08041E92000F00BF90028F4D1284624
:1040440008F056FE38B100F0D5F80024CAE700F0B5
:10405400D1F80024C6E700217A2000F0F9F858B11D
:1040640000F0C8F80024BDE7FCF7C0F904F1080328
:104074006B4403F8040C0134032CF5D99DF8043087
:1040840013F0400F07D0C02600F0B4F80120FCF76D
:1040940083F93446A6E74026F6E70021E92000F03C
:1040A400D7F801281ADD10264124284608F020FEFE
:1040B40028B90021204600F0CBF80028F5D1284685
:1040C40008F016FE30B94FF40071502000F0C0F82B
:1040D400044650B100F08EF8002483E72026E9243A
:1040E400E3E700F087F800247CE700F083F8002E73
:1040F4003FF478AFCAE7000030B585B00146344BD1
:104104001860344803F0CEFAFFF756FF30F080030E
:1041140019D00446FFF788FE054690B12E4B436044
:104124002B4B1B6803F00F0323430370002149202A
:1041340000F08EF858B100F05DF800212846FFF732
:1041440087FE05B030BD254803F0ACFAF9E700F06E
:1041540063F8FE28EFD1002408E0FCF747F904F1E6
:1041640010036B4403F8100C0134E4B20F2CF4D99F
:104174009DF800309B09012B20D09DF8052002F00A
:104184000F029DF80A3002EBD3129DF809305B0050
:1041940003F006031A449DF808109DF807309B00AD
:1041A40003EB91139DF80610890201F440610B445E
:1041B40001332B61073A93402B61BCE79DF809302A
:1041C4009DF8082003EB022301339B022B61B2E725
:1041D400506B0120E44A012009420020F44A0120E6
:1041E40010B5002404B110BD2046FFF785FF01344B
:1041F400E4B2F7E708B5074B1B7833B1FCF7F6F8E0
:104204000028FBD0034B00221A70FCF7D5F8FCF70A
:10421400EDF808BD9ABC062070B50546052008F0E7
:1042240053FD064605E0FF280ED1304608F060FD38
:1042340038B9FCF7DBF80446002DF4D0FF28F4D19C
:1042440002E0024802F0E0FF204670BD044B01206A
:1042540038B504460D46FFF7CDFF14F0800F07D0A4
:1042640004F07F0400217720FFF7F2FF01282CD807
:10427400FFF7C0FFFCF7A6F8402C04D00120FFF79D
:10428400CBFFFF2826D12046FCF7A2F8280EFCF726
:104294009FF8C5F30740FCF79BF8C5F30720FCF72C
:1042A40097F8E8B2FCF794F8402C0FD0482C0FD0C4
:1042B4000120FCF78DF8FCF799F81424FCF796F824
:1042C40010F0800F01D0013CF8D138BD9520F0E703
:1042D4008720EEE7FF20F8E738B5364B9B681B785C
:1042E40003F00F03344A136000242DE0582032E019
:1042F400304BD96838E00120FFF78EFFFF2815D135
:10430400FE20FCF765F8FCF791F8FF20FCF760F855
:10431400FF20FCF75DF80020FFF77EFF00F01F058B
:10432400052D14BF0025012500E00025214B9B7CB1
:10433400002B2BD1214B01221A70002D2CD12048A7
:1043440002F062FF0134E4B2072C2AD8194B9B7C9B
:10435400002BCBD05120174B9B6893F90030002BD6
:10436400C6DB144BD9684902FFF772FF0028DCD181
:10437400104B9D7C002DBED0FFF74EFFFE280CBFD6
:1043840001250025D2D1FCF741F8CFE7FFF732FF32
:104394000A4B00221A70D0E7074BFF221A60012053
:1043A40007E0084B002005221A755875024BFF22BE
:1043B4001A6038BDA4810120506B01209ABC0620EC
:1043C400144B0120B0CD01200378407843EA00204B
:1043D40070470378427843EA0223827843EA02432F
:1043E400C07843EA006070470170090A4170704761
:1043F4000170C1F307234370C1F307438370090EAF
:10440400C170704720B1421E104203D00020704793
:10441400002070470120704790F85831202B06D0B7
:104424004FF6F773994294BF002001207047034868
:10443400814294BF00200120704700BFF7FFFF0FA7
:1044440090F85831202B06D04FF6F773994214BFD9
:104454000020012070470348814214BF002001203E
:10446400704700BFF7FFFF0F90F85831202B02D0A0
:104474004FF6FF7070476FF070407047844600221B
:10448400104608E0C30143EA50031CF8021051FA35
:1044940083F3D8B201320A2AF4D9704708B5042943
:1044A40007D8490089B2013189B20844FFF78CFF6B
:1044B40008BD0A2904D8023189B2490089B2F4E757
:1044C400033189B2490089B2EFE708B50B461146BA
:1044D400042B07D85B009BB201339BB21844FFF74F
:1044E40083FF08BD0A2B04D802339BB25B009BB246
:1044F400F4E703339BB25B009BB2EFE770B4037B3A
:1045040003F0080403F01005082300E001330A2B2C
:1045140004D8C25C202AF9D0012600E0002600223B
:10452400134605E01D2A02D801F802C00132013306
:10453400072B11D810F803C0BCF1200F0CD0002CAD
:10454400F0D0BCF1400FEDD9BCF15A0FEAD80CF110
:10455400200C5FFA8CFCE5E7CEB11D2A02D82E238D
:104564008B540132082304E01D2A01D88C540132F3
:1045740001330A2B0BD8C45C202C08D0002DF3D0B7
:10458400402CF1D95A2CEFD82034E4B2ECE70023C4
:104594008B5470BC704700B54FF01E0E04E093427C
:1045A40026D1BEF1010E25D00378BBB12F2B15D037
:1045B400013011F8012BA3F1610C5FFA8CFCBCF102
:1045C400190F01D8203BDBB2A2F1610C5FFA8CFC1D
:1045D400BCF1190FE3D8203AD2B2E0E70B782BB143
:1045E4002F2B01D0002006E0012004E0012002E08E
:1045F400002000E001205DF804FB80EA014181EA2B
:10460400104083B283EA1040012800D97047023079
:1046140080B2FBE780EA104083B2C0F30F20584019
:10462400012800D97047023080B2FBE710F0030F75
:1046340015D10D4BA3FB00235B09642202FB13037A
:104644009BB273B9084BA3FB0023DB094FF4C87278
:1046540002FB130080B2B0FA80F0400970470020DA
:1046640070470120704700BF1F85EB5110B54B1EEA
:10467400064AD45C022901D0204610BDFFF7D6FFBC
:104684000028F9D00134E4B2F6E700BF50650120F8
:104694002DE9F84F8B469246374DA5FB00352D0C7E
:1046A400364A02FB1502364BA3FB02394FEAD927DF
:1046B400C9F3C7294FF4616303FB1727314BA3FBED
:1046C4000717C7F34717A3FB02384FEA5818C8EB7C
:1046D4000818A2EB88085FFA88F840F2B2740AE07E
:1046E40040F26D13AB4217D8ED1A0134A4B240F670
:1046F4003B039C4207D82046FFF798FF0028EFD0E1
:104704004FF4B773EEE74FF03A083B274FF0170921
:1047140040F63B044FF4B67501260C2E09D83146F9
:104724002046FFF7A3FFA84203D82D1A0136F6B29C
:10473400F3E7EDB20135EDB240F2BB739C4207D80A
:104744004FF000084746C14601252E4640F2BC748E
:10475400A4F2BC74730143EA44231BB22B43ABF8A9
:1047640000307B0143EAC9231BB243EA5803AAF889
:104774000030BDE8F88F00BF07452EC2805101000C
:10478400C5B3A291898888881F281CD97F281CD08A
:104794003C2809D822281AD32238C0B20F4B23FA56
:1047A40000F000F0010070475C2812D003D97C2887
:1047B40007D0002070473E38C0B201280BD9002032
:1047C4007047012070470120704701207047002086
:1047D4007047012070470120704700BF0121000588
:1047E4002DE9F8430378C3B1074688469146202B48
:1047F40013D0002635461D2D1FD87C5DECB12F2C1F
:104804001BD014F0800F10D12046FFF7BDFF60B914
:1048140028F8164001350136EDE7134B16221A75B8
:1048240000225A754FF0FF3014E00F4B16221A7510
:1048340000225A754FF0FF300CE06EB106F10043D0
:10484400013B38F81330202B06D02E2B04D0C9F8A6
:1048540000600020BDE8F883034B16221A7500227D
:104864005A754FF0FF30F5E7B0CD0120A0F12103D8
:10487400DBB25D2B15D83F2809D8222813D3223860
:10488400C0B20C4B23FA00F000F0010070475D2821
:1048940003D97C280BD1012070475B2805D3012064
:1048A40070470120704700207047002070470020A7
:1048B400704700BF0127003F10B50446A0F1610313
:1048C400DBB2192B0AD8A0F12004E4B22E2C09D0B3
:1048D4002046FFF7CBFF38B9204610BD2028F5D17C
:1048E4000020FAE70020F8E75F20F6E72DE9F04F13
:1048F40083B00746019191469B46DDF830A0002421
:104904001460CAF800404FF0FF3800E001341D2C59
:1049140032D83B5D93B32F2B05D02E2BF6D1002C30
:10492400F4D0A046F2E700250FE00026785DFFF7FB
:10493400C3FF48B1B6B1DAF80020022A04D8511CEA
:10494400CAF800100BF802000135A54218D2B8F1DC
:10495400000FEADBA845F7D0454501DC0026E5E772
:104964000126E3E7D9F80020072AEDD8511CC9F83D
:10497400001001998854E7E70025E6E70025E4E7FD
:1049840003B0BDE8F08F00000346012004E0044AB0
:10499400A2FB0323DB080130092BF8D8704700BFC2
:1049A400CDCCCCCC0DE0094BA3FB0023DB081A468D
:1049B40003EB8303A0EB4303303301F80C301046C0
:1049C400624602F1FF3C002AEDD17047CDCCCCCC3D
:1049D400F8B5012924D904461546D0F884318B4210
:1049E4001ED390F85831202B22D04900D4F86831D6
:1049F40001F4FF77002203EB5121208802F00AFD25
:104A04000646E8B194F85831202B13D03844FFF708
:104A1400DBFC0446304602F077FC2C600020F8BD35
:104A2400094B05221A7500225A754FF0FF30F6E73C
:104A34008900DBE73844FFF7CCFC20F07044E9E759
:104A44004FF0FF30EBE700BFB0CD01202DE9F04F70
:104A540083B00446884615461E460C9F97F80B9073
:104A640009F0100B07F11A00FFF7AEFC0190824623
:104A740094F85831202B07D007F11C00FFF7A9FC4C
:104A840001904E4F00220BE007F11400FFF79CFC4D
:104A94004AEA004AF0E77988238899420BD0903794
:104AA400474B9F421FD297F87030002BF3D1002A56
:104AB400F1D13A46EFE797F87410424BE31A1B1111
:104AC400414800FB03F3DBB29942E8D197F8833005
:104AD40013F0010FE3D1FB6FAB42E0D1B7F88030A4
:104AE400B342DCD100E00027002F54D097F8703097
:104AF400002B4CD16822002107F108000FF08CF83C
:104B04000023BB67FB67C7F88030C7F88430C7F859
:104B14008830C7F88C3023887B802A4BE31A1B111A
:104B2400294A02FB03F387F8743031462846FFF71D
:104B340064FDB88046F291033B8063889B0103F0D7
:104B4400400387F87330012387F87030C7F878A0E2
:104B5400FD67A7F8806087F88290D8F87830C7F8A6
:104B64008430BBF1000F20D044F2FF133B810223B9
:104B74007B8119F0010F06D03B8923F092033B811E
:104B8400402387F87330384603B0BDE8F08F013313
:104B940087F87030F7E70AB11746ABE70B4B1721DC
:104BA4001975002159751746EDE748F2B6133B8194
:104BB40001237B81019B3B61DBE700BF80B80120BF
:104BC400C0C301200CAE0120295C8FC2B0CD0120EE
:104BD40008B5232200210FF01FF808BD2DE9F04786
:104BE40005460F78CB7A0F2B29D10C4607F01F0608
:104BF40091F80C80B8F1000F21D101F11A00FFF7F0
:104C0400E3FBE0B917F0400F0AD0EEB123220021F4
:104C140028460FF001F801232B70637B6B70AE7094
:104C24002B7843B13EB195F802A0B24503D1627B23
:104C34006B789A420CD02846FFF7CAFF02E0284658
:104C4400FFF7C6FFBDE8F0872846FFF7C1FFF9E785
:104C540006EB460306EB83060D3E1D2E01D9012308
:104C6400EB70002707E04046B9F11D0F02D8A944B4
:104C740089F8040001370C2F11D807EB06093946CF
:104C84002046FFF70BFC431E9BB24FF6FD72934286
:104C9400E9D87F2801D8C0B2E6E75F20E4E7002323
:104CA40085F822300AF1FF3A85F802A0CAE72DE917
:104CB400F04F87B082460E4693464FF020330B6088
:104CC4004B60C1F80730FF27002300E001331D2BA0
:104CD4000BD81AF8032042B12F2A06D02E2AF5D178
:104CE400FF2F40F083801F46F0E7FF2F51D0002FA5
:104CF4007FD0013BBB427FD00022029204920192FA
:104D04009146904615460392CDF814B0B3461BE085
:104D140000262E2C17D02046FFF7A8FD00286ED1C0
:104D2400A4F16103DBB2192B20D8E6B10296203C32
:104D3400E4B236B3B9F1020F64D809F108030BF8F1
:104D4400034009F1010901351D2D2ED81AF805403B
:104D54005CB32F2C29D0FF2FDAD0BD4201D8002616
:104D6400D7E70126D5E701230193E0E7A4F1410346
:104D7400DBB2192BDDD80EB10396DAE701230493D5
:104D8400D7E7B8F1070F40D80BF8084008F101083D
:104D9400D9E7002202920492019291469046154668
:104DA4000392CDF814B0B346CEE7039ADDF814B0FD
:104DB400B8F1000F2CD0019B0BB1049B5BBB029B91
:104DC40003B15ABB019B1BB1049B6BB1002300E0F0
:104DD4000023029911B10AB943F010038BF8003093
:104DE400002007B0BDE8F08F0823F2E74FF0FF3052
:104DF400F7E74FF0FF30F4E74FF0FF30F1E74FF003
:104E0400FF30EEE74FF0FF30EBE74FF0FF30E8E71D
:104E14004FF0FF30E5E74FF0FF30E2E74FF0FF30AF
:104E2400DFE72DE9F84F074688464FF020330B6043
:104E34004B60C1F80730FF26002300E001331D2B2F
:104E440009D8FA5C3AB12F2A05D02E2AF6D1FF2EC2
:104E54004DD11E46F2E7FF2E3ED0002E4AD0013B34
:104E6400B3424AD04FF0000AD34655461CE04FF0F7
:104E740000092E2C17D02046FFF7F8FC00283FD15C
:104E8400A4F16103DBB2192B01D8203CE4B2B9F1DF
:104E9400000F19D0BAF1020F35D80AF1080308F847
:104EA40003400AF1010A01351D2D1AD87C5DC4B1F5
:104EB4002F2C16D0FF2EDAD0B54202D84FF00009BD
:104EC400D7E74FF00109D4E7BBF1070F1ED808F864
:104ED4000B400BF1010BE6E74FF0000AD3465546B1
:104EE400E2E7BBF1000F14D00020BDE8F88F4FF0CB
:104EF400FF30FAE74FF0FF30F7E74FF0FF30F4E709
:104F04004FF0FF30F1E74FF0FF30EEE74FF0FF30A6
:104F1400EBE74FF0FF30E8E72DE9F8430746894611
:104F240014469846089E099D202200210EF074FE26
:104F340087F800900F23FB727C73002107F11A009D
:104F4400FFF752FA002408E0B24213D04FF6FF7282
:104F540021463846FFF7B9FA01340C2C0CD805EB7E
:104F6400450205EB820222440D3AB242ECD238F8F3
:104F74001220EDE70022EBE7BDE8F8832DE9F047C6
:104F840082B0012910D904469046D0F884318B426E
:104F94000AD390F85831202B0ED04F004FEA5729EE
:104FA40007F4FF77002517E0234B05221A7500222A
:104FB4005A754FF0FF3036E08F00EFE71FFA88F1A3
:104FC40001A8FFF711FABDF80430F353012130466C
:104FD40002F06EF968BB013594F86031AB4221D917
:104FE400D4F86811D4F86C3105FB0311002249444C
:104FF400208802F00FFA0646C0B194F85831202BED
:10500400DCD128F0704AC359019301A8FFF7E1F9F4
:1050140000F0704141EA0A0101A8FFF7E9F9019B98
:10502400F351D3E7002002B0BDE8F0874FF0FF3022
:10503400F9E74FF0FF30F6E7B0CD012070B582B04C
:1050440005460C46D0F880310233012C2AD9D5F814
:105054008421A24226D35E1E1BB301AA2146284600
:10506400FFF7B6FCC0B9002221462846FFF786FFA9
:1050740090B9019C21462846FFF7CEF978B921461C
:105084002846FFF7DDF910B90CB13346DDE70B4BC9
:1050940005221A7500225A754FF0FF3004E033469A
:1050A40000E0334613B1002002B070BD034B05226B
:1050B4001A7500225A754FF0FF30F5E7B0CD012084
:1050C40010B514460022008802F0A4F928B1E522A4
:1050D4000255012102F0ECF810BD4FF0FF30FBE760
:1050E4002DE9F04190F85C8101291DD90646D0F8DC
:1050F40084318B4218D3D0F87C71023908FB0177D4
:105104000024A04518D90122E119308802F082F95F
:105114000546A0B14FF4007200210EF07DFD284633
:1051240002F0FBF80134ECE7064B05221A75002265
:105134005A754FF0FF3000E00020BDE8F0814FF0D9
:10514400FF30FAE7B0CD01202DE9F04182B00546E9
:105154008846D0F88841FFF787F90746012C05D91E
:10516400D5F88431A34202D2022400E002240026AE
:105174001AE03A4621462846FFF700FF10B14FF0E7
:10518400FF3032E021462846FFF7AAFF18BBD5F8C6
:105194008431A34205D0631CC5F88831C8F80040A7
:1051A40023E00223F8E70136D5F88031B34215D95C
:1051B40001AA21462846FFF70BFC48B9019B002BA6
:1051C400D7D00134D5F88431A342ECD20224EAE7E3
:1051D4004FF0FF3009E04FF0FF3006E0044B1C2293
:1051E4001A7500225A754FF0FF3002B0BDE8F08105
:1051F400B0CD01202DE9F04683B08C6F012C15D978
:105204000546894617469A46D0F88431A3420DD301
:10521400B2B1D1F88820DAB1D1F88C60BE4219D885
:10522400012A19D9934219D2002627E0334B0522CB
:105234001A7500225A754FF0FF3003B0BDE8F086AE
:10524400C1F888400020C1F88C00CAF80040F4E797
:10525400002613E0002611E000260FE014460DE0BE
:10526400019C21462846FFF7EBF830BB2CB3012CF8
:105274002BD9D5F884319C4227D80136BE4234D28A
:1052840001AA21462846FFF7A3FB30BB0199284613
:10529400FFF7C2F80028E3D00A9B0BBB01A92846FC
:1052A400FFF752FFF0B9019A21462846FFF766FE40
:1052B4000028D5D04FF0FF30BFE7104B05221A75F8
:1052C40000225A754FF0FF30B7E70C4B05221A75D0
:1052D40000225A754FF0FF30AFE74FF0FF30ACE7D4
:1052E4000120AAE74FF0FF30A7E7C9F88840C9F8C2
:1052F4008C70CAF8004000209FE700BFB0CD0120A9
:105304002DE9F04184B005461E46C2F308074FEA72
:10531400522C90F85831102B05D08B6FA3B9012073
:1053240004B0BDE8F08191F8833013F0010FF4D09C
:10533400D0F8783163452FD9D0F8743163443360A1
:105344000A9B1F800020EBE795F85C81BCFBF8F218
:1053540008FB12C40123009303AB2846FFF74AFF5E
:105364000028DDD1039B012B0ED9D5F8842193426B
:105374000AD8D5F87C21023B03FB082353FA84F4B2
:1053840034600A9B1F80CBE7044B05221A75002268
:105394005A754FF0FF30C3E70120C1E7B0CD0120BB
:1053A400F0B583B005460C4691F8833013F0010F35
:1053B40003D090F85831102B21D0A76F3FB3D5F804
:1053C400806102363346013E002B3CD06A463946A2
:1053D4002846FFF7FDFA002850D1009C21462846B4
:1053E400FFF71AF878BB21462846FFF729F808BBCF
:1053F40004B3D5F884319C421CD82746E2E7224BFB
:105404001C221A7500225A754FF0FF3019E001A9C9
:105414002846FFF799FE70BB019BA367C4F8883048
:105424000023C4F88C3094F8733063F07F0384F85D
:10543400733006E0144B05221A7500225A754FF09A
:10544400FF3003B0F0BD76B101A92846FFF77CFE1A
:10545400B8B9019A39462846FFF790FD0028F0D0E4
:105464004FF0FF30EDE7084B05221A7500225A75FC
:105474004FF0FF30E5E74FF0FF30E2E74FF0FF3049
:10548400DFE74FF0FF30DCE7B0CD012070B584B02A
:1054940005461C460DF10A03009303ABFFF730FFEA
:1054A400064610B1304604B070BD00220399288826
:1054B40001F0B0FF024630B3BDF80A10431850F8AB
:1054C40001C05D689868D968C4F800C06560A060D0
:1054D400E160D3F810C05D699869D969C4F810C057
:1054E4006561A061E161104601F00EFF089B13B1F4
:1054F400039B089A1360099B002BD3D0BDF80A3094
:10550400099A1380CEE74FF0FF36CBE752B12DE96D
:10551400F0478AB006460F469A4690460025A946AB
:105524002C4615E0184B16221A7500225A754FF0B6
:10553400FF30704739463046FFF732FF40B14FF035
:10554400FF301EE005B9A1460135A84514D9203421
:1055540000230193009302AB224639463046FFF7FD
:1055640095FF0128E6D050B99DF80830E52BE9D025
:10557400002BE7D00025EAE7CAF8009001E04FF0DD
:10558400FF300AB0BDE8F087B0CD012038B515462C
:105594001C460022008801F03DFFF0B10246431989
:1055A400D4F800E0D4F804C0A068E16842F805E04B
:1055B400C3F804C09860D960D4F810E0D4F814C0DB
:1055C400A069E169C3F810E0C3F814C09861D96117
:1055D4000121104601F06CFE38BD4FF0FF30FBE7AF
:1055E400F0B58BB006460D46174600240023019300
:1055F400009302AB224629463046FFF747FF0128B5
:1056040013D0A8B920349DF808307BB1E52BEDD038
:105614009DF813300F2BE9D00B22394602A80EF067
:105624004DFB0028E2D1012000E000200BB0F0BDCA
:105634004FF0FF30FAE700002DE9F0418AB006464A
:105644000F461046984605AB009307AB06AA08A977
:10565400FFF74CF9069B6BB946238DF8203049239C
:105664008DF821304C238DF8223045238DF82330DA
:1056740004230693012523E00CF128030DEB030E0C
:105684001EF8083C0EF8203C0CF1010C6445F3D8DC
:10569400611C04F128030DEB03047E2304F8203C71
:1056A40002AB19442846FFF77DF9059A0ABB02AA02
:1056B40039463046FFF794FF031E2CDBF3B1013566
:1056C4001C4B9D422AD82846FFF75EF90246431C2C
:1056D400072B23D8C0F10703069C9C4200D31C4629
:1056E4004FF0203302930393CDF80F304FF0000CAA
:1056F400CCE707A904A80EF00FFBD8E702AA03CA57
:10570400C8F80000C8F8041011889278A8F80810A6
:1057140088F80A2009E04FF0FF3306E0064B1C220C
:105724001A7500225A754FF0FF3318460AB0BDE8C7
:10573400F08100BF9F860100B0CD01202DE9F04F1C
:1057440087B0044608460022114601F063FE002893
:1057540000F0EF80054600F5FF70FEF735FE4AF6CF
:105764005523984240F0998005F10B00FEF72CFE7A
:10577400804695F80D9005F10E00FEF725FE029087
:1057840095F810B005F11100FEF71EFE039005F127
:105794001300FEF719FE064605F12000FEF719FE78
:1057A400074605F11600FEF70FFE824605F12400B8
:1057B400FEF70FFE019006B13746BAF1000F01D093
:1057C400CDF804A0B8F5007F72D14846FEF71AFE62
:1057D40000286DD0029B002B6AD0BBF1000F67D06C
:1057E400002F65D0019B002B62D0039B08EB43166E
:1057F400013EB6FBF8F30593029A019901FB0B22D3
:10580400049202EB030A57455DD9A7EB0A06B6FBDF
:10581400F9F640F6F4739E4260D94FF6F4739E4253
:1058240067D8102303933822002104F5AC700EF0DE
:10583400F3F9012384F85431039A84F85821A4F825
:105844005A8184F85C91029BA4F85E3184F860B1BB
:10585400C4F86471C4F86831019BC4F86C31C4F8AD
:105864007CA1C4F880610136C4F884610223C4F8C1
:105874008831202A40D0049BC4F87431059BC4F8B5
:10588400783100262681022384F84631284601F027
:105894003BFD304607B0BDE8F08F274B16221A7542
:1058A40000225A75284601F02FFD4FF0FF30F1E732
:1058B400214B16221A7500225A75284601F024FD40
:1058C4004FF0FF30E6E71C4B16221A7500225A757A
:1058D400284601F019FD4FF0FF30DBE7164B162286
:1058E4001A7500225A75284601F00EFD4FF0FF305C
:1058F400D0E72023039396E705F12C00FEF769FD1A
:10590400074605F13000FEF75FFD012F06D9BE42C0
:1059140004D3C4F87071A4F88C01B2E7064B1622C4
:105924001A7500225A75284601F0EEFC4FF0FF303C
:10593400B0E74FF0FF30ADE7B0CD012038B50546F4
:105944002F4B002401E0B4B190332E4A934214D279
:1059540093F87020002AF6D0B3F802C029888C4549
:10596400F2D193F8831011F0010FEDD0013283F8D6
:1059740070201C4635E01C46E6E7A4B368220021EB
:1059840004F108000EF048F90023A367E367C4F8A4
:105994008030C4F88430C4F88830C4F88C302B8844
:1059A40063800122A280184BEB1A1B11174901FBDB
:1059B40003F384F8743046F2910323806B889B01CF
:1059C40003F0400384F8733084F8702044F2FF132A
:1059D40023810223638184F8832095F85831202B96
:1059E40007D0204638BD0A4B17221A7500225A7573
:1059F400F7E7D5F87031A367C4F88430F1E700BF46
:105A040080B80120C0C301200CAE0120295C8FC2E4
:105A1400B0CD0120F0B58BB006460F4690F8583152
:105A2400102B04D0202B08D0564C002513E000295D
:105A3400F8D1FFF783FF054679E0D6F87031BB4211
:105A440002D0504C002506E03046FFF777FF0546AC
:105A54006DE02DB390344C4B9C4223D294F87030BB
:105A6400002BF6D0628833889A42F3D194F87420DC
:105A7400464BF31A1B11464901FB03F3DBB29A426E
:105A8400E8D1204602F0BEF94028E3D1A36FBB421F
:105A9400E0D194F87030013384F87030254646E044
:105AA4002546D7E7002D45D06822002105F10800DE
:105AB4000EF0B2F80024AC67EC67C5F88040C5F876
:105AC4008440C5F88840C5F88C4033886B802F4BE0
