:020000041000EA
:1000000000200820490100101B010010994C00201D
:100010001101001011010010110100101101001058
:10002000190100101901001019010010B54C002031
:10003000110100101901001021010010230100100E
:100040001101001011010010110100101101001028
:100050001101001011010010110100101101001018
:100060001101001011010010110100101101001008
:1000700011010010110100101101001011010010F8
:1000800011010010110100101101001011010010E8
:1000900011010010110100101101001011010010D8
:1000A00011010010110100101101001011010010C8
:1000B00011010010110100101101001011010010B8
:1000C00011010010110100101101001011010010A8
:1000D0001101001011010010110100101101001098
:1000E0001101001011010010110100101101001088
:1000F0001101001011010010110100101101001078
:100100001101001011010010110100101101001067
:10011000EFF30580103800BE00BE00BE00BE00BE7A
:1001200000BE00BED3DEFFFF42012110FF01000030
:100130007CC20100793512AB4FF000002149086004
:1001400006C881F3088810474FF05040006810B18E
:100150004FF00000F2E70DA40ECC002902D000F011
:1001600012F8F9E71849194A002000E001C191424C
:10017000FCD117498847174988471749884700BE67
:10018000FDE701C901C29A42FBD37047E4010010A8
:1001900010010020F87D0120CC7E0110F87D0120A7
:1001A000CCC20120A0C301100000082000000820DC
:1001B000A0C301100010082000100820000000005B
:1001C0007047000008ED00E0CCC20120502207205B
:0C01D000B9470120254200207D47012096
:0801DC0008740110010000008D
:1001E400F8B500BF0348044B834202D0034B03B16C
:1001F40018477047CCC20120CCC201200000000087
:10020400064B0749C91A891048BF0131491003D068
:10021400044B0BB101481847704700BFCCC2012002
:10022400CCC201200000000010B5064C237843B96D
:10023400FFF7D8FF044B13B10448AFF30080012348
:10024400237010BDF0C2012000000000F87D0120E1
:1002540008B5044B1BB104490448AFF30080BDE862
:100264000840CDE700000000F4C20120F87D012021
:1002740070B5EFF3108672B6124B01221A77124B47
:100284001C685D6841F28833E41845F1000503F009
:10029400D5FE0CF043F922462B46002013F094F9C6
:1002A40028B9084B00221A7786F3108870BD13F022
:1002B40077F841F28832821841F10003002013F0EC
:1002C40083F9EEE7142E0220E8C20120B0F5406F56
:1002D40001D30020704701207047000008B50020BA
:1002E40013F016F813F05CF80A4BC3E900010A494D
:1002F400002013F0D5F8002013F0D0F900F090F8A6
:1003040010F0ECF911F00CFA00F0C8F805F0DAFA84
:1003140008BD00BFE8C20120A101002008B5064BBA
:10032400D968B1F5FA5F01D3002008BD0022034863
:1003340006F0FEFBF8E700BF34D90120B80602201E
:1003440000B583B000238DF807300E4B9B7C7BB146
:100354000C490DF107030A68C9680B4806F012FB43
:100364009DF80700B0FA80F0400903B05DF804FB83
:1003740004490DF107030A68C968034806F0B0FB95
:10038400EEE700BF34D90120B806022000207047F0
:100394007047000000B585B000228DF80F200DF1E4
:1003A4000F0301930D4B00934FF400730C4804F0BA
:1003B4005CF99DF80F3053B9B3F5007F05DA074AAD
:1003C400D25CFF2A05D10133F6E7012002E00020C8
:1003D40000E0002005B05DF804FB00BF7C1307209B
:1003E400A4A4012030B583B015461C4601930A4BE2
:1003F40000934FF400730022084804F036F9237880
:100404003BB92346044A2946044804F01AF903B0C8
:1004140030BD4FF0FF30FAE77C130720A4A401207D
:1004240070B582B005F00AF830B30446134809F0F9
:100434000DFD134D0A23134A1349284606F060FAAA
:1004440000268DF807600DF10701284606F063FACF
:10045400284606F079FA05460C4B42084FF47A61B7
:100464000B4809F0F3FC0B4B63600B4BE360256115
:100474003146204604F0F6FF02B070BDD88B01204F
:10048400B8060220C0200220A4A401200080011488
:10049400E88B0120710200204D02002010B51220CB
:1004A40012F0F8F9132012F0F5F9102012F0F2F915
:1004B400112012F0EFF90121122012F091F901211B
:1004C400132012F08DF90121102012F089F9052171
:1004D400112012F085F911234FF0010242EC44304F
:1004E4000A4C0B49204614F07BFD626802F00202BC
:1004F400084B02215960236883F0070303F0CF03FC
:1005040005490B60054B5A6010BD00BF0000084050
:1005140090D003000030084000100840002008403C
:1005240008B520B10349044814F01AFD08BD034975
:10053400F9E700BF00093D000000084090D0030027
:1005440011234FF0010242EC4030704711234FF069
:10055400000242EC4030704700B583B001900122A4
:1005640001A9034817F094FF03B05DF804FB00BF32
:100574000000084000B583B001230DF10702FF21FC
:10058400034817F0B2FF9DF8070003B05DF804FBC1
:100594000000084008B54FF40073044A1268FF21B4
:1005A400034817F0A2FF002008BD00BF34D9012082
:1005B4000000084008B54FF40072034B1968034863
:1005C40017F066FF002008BD34D901200000084060
:1005D400044B1878044B1B78984214BF0020012068
:1005E400704700BF30220720312207200130C0B2FB
:1005F400102800D070470020FCE7000008B5054B28
:100604001878FFF7F3FF044B1B78834214BF0020D4
:10061400012008BD302207203122072070B505468D
:100624000C46FFF7EBFF60B9074E3078074B03F831
:10063400105003EB40035C70FFF7D8FF30700120CB
:1006440070BD0020FCE700BF30220720F80602201E
:1006540038B50446FFF7BCFF50B9064D2878064B61
:1006640033F810302380FFF7C1FF2870012038BD14
:100674000020FCE731220720F80602200023024A6A
:100684001370024A1370704730220720312207206A
:100694008388C288934204D2981A00F5807080B28D
:1006A4007047981A80B2704708B5FFF7F1FFC0F1A0
:1006B400FF0080B208BD2DE9F0470646894615467D
:1006C4008488C4F58077BFB2B846974228BF904665
:1006D40000F1080A42460AEB040017F0F3FA444416
:1006E400A4B2B4F5807F04D0AF4204D3B480BDE893
:1006F400F0870024F8E7A5EB08052A4609EB080172
:10070400504617F0DFFAACB2F0E72DE9F0470646A1
:1007140088461546C488C4F58077BFB2B946974267
:1007240028BF914600F1080A4A460AEB04014046F4
:1007340017F0C8FA4C44A4B2B4F5807F04D0AF4299
:1007440004D3F480BDE8F0870024F8E7A5EB09059D
:100754002A46514608EB090017F0B4FAACB2F0E7A8
:1007640038B501F00304EFF3108572B674BB384B4F
:100774001B7873B9364B01221A70364B1B689A8862
:10078400354B1A8000230360344A1370FFF776FF59
:100794000AE085F310882F4B10221A7500225A752F
:1007A4004FF0FF3011E00134032C0BD804EB441359
:1007B4002B4A12F83330002BF5D0E1B20120FFF7B9
:1007C4002DFFF0E785F31088002038BD012C35D1CA
:1007D4000021032928D801EB4113214A12F83330B0
:1007E4000BB10131F5E701EB411402EBC4034FF007
:1007F400010C02F834C0174A126892885A80002209
:100804009A80DA8001EB0C030360114B1B7833B937
:1008140014480BF085FC85F310880020D5E7C9B295
:100824006046FFF7FBFEF3E785F31088094B1022BF
:100834001A7500225A754FF0FF30C6E785F3108809
:10084400044B16221A7500225A754FF0FF30BCE78C
:100854003C220720142E02200222072043220720D4
:10086400000F07203D22072008B900207047044BE1
:1008740013221A7500225A754FF0FF30704700BFDB
:10088400142E022038B5224BD3F8C840A3B2EFF39C
:10089400108572B633B3E4B2013CE4B2032C1DD824
:1008A40004EB4412D3001B4AD35CBBB1104604EBE7
:1008B4004413D9000A440023435453809380D380C3
:1008C400154B1B78FBB915480BF02AFC04EB4414B8
:1008D400E000104B184406300BF022FC85F310881E
:1008E400002038BD0C4B1B7813B985F31088F7E74B
:1008F4000023094A13700A4A1380FFF7BFFE074812
:100904000BF00EFCF1E721460220FFF787FEDAE741
:10091400142E0220000F07203C2207203D2207202E
:10092400022207202DE9F04F91B0534BD3F8C86051
:10093400B3B283B19046514B1B78A3B1F6B2013EDA
:10094400F6B2032E17D806EB46134D4A12F833308D
:100954008BB100274BE0484B09221A7500225A75C7
:100964004FF0FF3081E0444B20221A7500225A7563
:100974004FF0FF3079E0404B09221A7500225A7576
:100984004FF0FF3071E03C4B0B221A7500225A7570
:100994004FF0FF3069E0402C28BF4024544528BF65
:1009A4005446A4B222466946334BD3F8C0000FF034
:1009B4003BFC00285CD1EFF3108A72B606EB4613B9
:1009C4002F4A12F83330002B40D02246694628467D
:1009D400FFF771FEB9F1000F42D08AF31088264A5E
:1009E400D2F8C0302344C2F8C0303C44A7B2224BF2
:1009F400D3F8C4309F4237D206EB4612204D05EBA4
:100A0400C2059BB2DB1B9CB2EFF3108B72B6284677
:100A1400FFF74AFE82462846FFF73AFE81468BF3EB
:100A24001088BAF1000FB6D1F7B918F0100FAAD197
:100A340006EB4613124800EBC3004146063008F0AB
:100A440099FF0028D3D04FF0FF300EE08AF31088CE
:100A5400094B09221A7500225A754FF0FF3004E041
:100A640008480BF05DFBB8E7384611B0BDE8F08FDD
:100A74004FF0FF30F9E700BF142E02203C2207207C
:100A8400000F07203D2207206B4BD3F8C830A0B9D4
:100A94002DE9F047A2B090469BB28246ABB9664BB3
:100AA400D3F8C430032B00F29680634B16221A75D8
:100AB40000225A754FF0FF3080E05F4B13221A7505
:100AC40000225A754FF0FF3070475B4B09221A75AC
:100AD40000225A754FF0FF3070E089F310889DF8BA
:100AE40080308DF884309DF881308DF88530002376
:100AF400ADF886300422504BD3F8C01021A80FF073
:100B0400BBFB08B9042059E04FF0FF3056E02746FC
:100B140004EB4413494E06EBC3063046FFF7B8FD19
:100B240060B90135032D4CD8454B1C7854FA85F433
:100B3400E4B2032CEBD9043CE4B2E8E7631CDBB277
:100B44003F4A1370032B02D9134600221A70304611
:100B5400FFF79EFD0546384BD3F8C4801FFA88F88A
:100B6400A8F104081FFA88F83046FFF79DFD824675
:100B7400454528BF4546ADB2A846802D28BF4FF055
:100B84008008424669463046FFF7BFFDBAF1000FC0
:100B940036D089F3108803238DF884308DF885408E
:100BA400ADF886800422244BD3F8C01021A80FF09E
:100BB40063FB00283DD165BB08F1040022B0BDE809
:100BC400F08718F0100F11D189F3108841461D48A1
:100BD40008F0D0FE50BBEFF3108972B620A8FFF7DF
:100BE40037FD00287FF479AF55469BE789F31088D9
:100BF400114B0B221A7500225A754FF0FF30DDE7B6
:100C040007EB47170D4800EBC70006300BF088FAD6
:100C1400BFE7094BD3F8C0104246043168460FF0D1
:100C24002BFB0028C8D04FF0FF30C7E74FF0FF3050
:100C3400C4E74FF0FF30C1E7142E0220000F072055
:100C4400432207203D22072030B40B4C00EB8003E5
:100C54004FEA830C04EB8303002544F80C509D6099
:100C6400DD608D681D614D685D600B68134344F859
:100C74000C3030BC704700BF00800A400022026084
:100C840042608260102242604FF6FF7282607047B9
:100C940000EB80008000094B0344084601B1102199
:100CA4008A4038B10649186842400A4003F5805327
:100CB4001A6070474FF6FF71F5E700BF0C800A40D9
:100CC4000000FFFF10B50446114B1B7863B1114BB4
:100CD4001B7840EA004403EB83039B0003F1804349
:100CE40003F52823DC6010BD02460B4B1978094B31
:100CF4001878FFF7CDFF094B1B78002BF3D0224661
:100D0400074B1978074B1878FFF7C2FFEBE700BFD2
:100D14002B2207202922072024220720262207200D
:100D2400252207202A220720294B1B7803B170476C
:100D340010B588B0274C0123237004211A2011F028
:100D44004FFD254B05221A70244B00221A7023787C
:100D54009BB9234B05221A70224B00221A70224B96
:100D640001221A701B4B1B78A3B11C4B1A781D4B24
:100D74001B789A420CD001220DE004211B2011F0B3
:100D84002FFD174B05221A70164B01221A70E6E745
:100D9400002200E00022154B1A706C462046FFF733
:100DA4006DFF05AB94E8070083E80700FF22079274
:100DB40010220692012219460520FFF745FF8020E4
:100DC400FFF780FF024B01221A7008B010BD00BF6C
:100DD4002722072026220720292207202422072051
:100DE4002A22072025220720282207202B22072039
:100DF40010B50F490F4C0B684A68206864681B18CB
:100E040042EB04020B604A600023012012F0DCFB79
:100E140000B910BD12F0C4FA064B5A6819680244AE
:100E2400034B19605A600023012012F0CDFBF0E758
:100E3400D0C20120D8C2012008B5114B1B78B3B928
:100E4400104B1B78A3B1104B00207D21C3E9000196
:100E540012F0A6FA0D4B00221A6058600C490120CA
:100E640012F01EFB064B01221A70FFF7C1FF08BDEA
:100E7400012012F04DFA034B01221A70E3E700BF80
:100E84002C22072023220720D8C20120D0C201200F
:100E9400C50D002038B5EFF3108572B6224B012240
:100EA4001A77224B1B78002B26D0214B1B889BB230
:100EB400002B2FD01E4B1C88A4B2B4F5006F14BFB6
:100EC400002401241B4A13889BB21B49C85C138865
:100ED4009BB201339BB2138013889BB2B3F5006FAE
:100EE40006D0134A13889BB2013B9BB2138005E0E2
:100EF400134600221A80F4E780200024FFF7E2FE64
:100F04005CB90A4B1B7863B9074B00221A7785F347
:100F1400108838BD80200024F0E708480BF000F961
:100F2400EFE7FFF765FFEFE7142E02202C220720DE
:100F3400EA210720F021072030D101202D220720AB
:100F440038B5104B1B7803B938BDEFF3108572B672
:100F540000240C4B1C70012012F06AFB2146012076
:100F640012F09EFA084B1B782BB98020FFF7AAFEDB
:100F740085F31088E8E7012012F0E0F9024B1C70B9
:100F8400F3E700BF2C220720232207202DE9F0419C
:100F940007460D46164B1C88A4B2C4F50066B6B2CB
:100FA400B0468E4228BF8846424601461148204436
:100FB40016F088FE4444A4B2B4F5006F0BD0AE42E0
:100FC4000BD30B4B1C800C4A138815FA83F39BB28A
:100FD4001380BDE8F0810024F1E7A5EB0804224664
:100FE40007EB0801034816F06DFEA4B2E9E700BF61
:100FF400EC21072030D10120EA210720F8B9EFF3D2
:10100400108272B6174B1B8823B117490968898867
:101014008B421CD110B5144B1B689988114B198055
:101024000024124B1C80124B1C80124B1C8082F338
:101034001088FFF779FEFFF7FFFE204610BD0A4B2C
:1010440013221A7500225A754FF0FF30704782F34D
:101054001088054B10221A7500225A754FF0FF3084
:10106400704700BFEE210720142E0220EC21072038
:10107400F0210720EA21072008B5EFF3108372B6A8
:101084000C4A126891880C4A1288914203D083F367
:101094001088002008BD002207490A8007490A80F9
:1010A40007490A8007490A8083F31088FFF748FF3D
:1010B400EFE700BF142E0220EE210720EC210720C9
:1010C400F0210720EA210720F0B5A1B01646394BDC
:1010D4001B689A88384B1B889A4201D1002536E058
:1010E400344B09221A7500225A754FF0FF305BE029
:1010F400304B0B221A7500225A754FF0FF3053E023
:10110400802B28BF80239A4228BF1A46144669467A
:10111400284BD3F8C0000FF087F8002846D1EFF32E
:10112400108772B6234B1B689A88234B1B889A42FC
:101134002FD121466846FFF729FF87F310881D4AFF
:10114400D2F8C0302344C2F8C0302C44A5B2194BA5
:10115400D3F8C4309D4226D29BB25B1B9BB2EFF303
:10116400108172B6154A128892B2C2F5006292B228
:1011740081F31088002AC3D1ADB916F0100FB7D18E
:1011840031460F4808F0F6FB0028E0D04FF0FF305E
:101194000AE087F31088074B09221A7500225A7552
:1011A4004FF0FF3000E0284621B0F0BD4FF0FF3093
:1011B400FAE700BF142E0220EE210720EA210720BF
:1011C4002D2207200E4B1B7B23B10D4B5B6813F4C0
:1011D400807F0AD00A4B586810F4807F0DD100F04C
:1011E4000F00084B53F82000704703F0070343F047
:1011F4000803044A52F82300704720F07F407047E8
:10120400E8230220ACA40120014B024A1A60704773
:10121400BCBF0120ECAB012010B50211114B53F8F7
:101224002210E1B10A7800F00F0303FB02F20E4C26
:101234002280497801FB03F30C490B800C49B1F976
:10124400001091FBF3F30B490B700B4BB3F9003017
:1012540093FBF2F3094A1370094B188010BD094837
:101264000BF014F9BCBF0120FC210720FA21072050
:10127400E62107201E220720E42107201F22072041
:10128400F8210720108C01207047012070470000CE
:10129400014B1870704700BFB8BF012008B5024663
:1012A4000B46FF21014817F020F908BD00800840D3
:1012B40008B50A460146024817F0EAF808BD00BF1F
:1012C4000080084010B5044612290DD8052929D3F9
:1012D40005390D2926D8DFE801F0182634255D6A82
:1012E4002525584E2525585311F1030F37D011F1F8
:1012F400020F2BD011F1070F14D1052111F070FA50
:101304004FF0000343EC44400CE00022114611F07E
:1013140083FA01220021204611F07EFA4FF00003E7
:1013240043EC404010BD0022114611F075FA002232
:101334000121204611F070FA4FF0010343EC4040C4
:10134400F0E70123834020EE1030EBE74FF0000379
:1013540043EC44000220002111F012FFE2E74FF0B9
:10136400010343EC4400032111F084FA022000211C
:1013740011F006FFD6E70022012111F04DFAD1E762
:101384000122002111F048FACCE70022114611F0A5
:1013940043FAC7E74FF0010343EC44004FF0000366
:1013A40043EC40000220002111F0EAFEBAE70022DB
:1013B400012111F031FA4FF0000343EC44400220C4
:1013C400002111F0DDFEADE708B506210F20FFF77F
:1013D40079FF42F21070002111F0D2FE05210F2096
:1013E400FFF770FF42F21070002111F0C9FE0621D0
:1013F4000F20FFF767FF0248002111F0C1FE08BD6E
:10140400400D03000D234FF0010242EC40307047C1
:101414000D234FF0000242EC403070472DE9F04FAD
:1014240083B080460E4617461D46FFF7F1FF0E2493
:101434004FF0000949EC40402A238DF80430012183
:1014440001A8FFF735FF4FF0010B4BEC40404FEA8A
:1014540028238DF800308DF801803B128DF802307E
:101464008DF8037004216846FFF722FF49EC4040E1
:101474002B238DF8053059460DF10500FFF718FFB1
:101484004BEC404033128DF800308DF801602B1284
:101494008DF802308DF8035004216846FFF708FFE9
:1014A40049EC40400C9B7BB12C238DF80630594607
:1014B4000DF10600FFF7FCFE0E234FF0010242EC93
:1014C400403003B0BDE8F08F2E238DF807300121A2
:1014D4000DF10700FFF7ECFEEEE70000F0B583B076
:1014E40084468E4610461946089D624501DD6046D5
:1014F4009446714502DD0B4671469E46002842DB48
:101504002B4BB3F90030834200DC581EBCF1000FB2
:101514003BDB634501DC03F1FF3C002938DB254B51
:10152400B3F900308B4200DC591EBEF1000F31DBF1
:10153400734501DC03F1FF3EACEB0003AEEB0106A7
:10154400013603FB066606EB460600240094734648
:101554006246FFF763FF184F1849384613F000FD41
:1015640001212846FFF79AFE31462846FFF796FEEA
:101574000E2344EC4030FFF745FF1149384613F081
:10158400EFFC234610E00020BAE74FF0000CC0E760
:101594000021C4E74FF0000ECAE79A1CA85CE95C7E
:1015A400E854A9540333033E002EF6D103B0F0BD32
:1015B400E4210720E621072000800840808D5B009D
:1015C40040787D012DE9F04182B0054614468242FF
:1015D40001DD044615468B4202DD1A460B461146D0
:1015E400002C52DB324AB2F90020A24200DC541E25
:1015F400002D4CDBAA4200DC551E002B49DB2D4A92
:10160400B2F900209A4200DC531E002943DB8A42CF
:1016140000DC511E2E1B0136C91A01F1010C002EEB
:1016240030DDBCF1000F2DDD234AB2F90020134454
:10163400224A82FB03121A44D917C1EB2221C1EBBF
:101644000111B3EB411128D40CEB0103B3F5F07F86
:1016540026DDC1F5F078ACEB0807089B009340F257
:10166400DF132A462046FFF739FF08FB06F606EB90
:101674004606089B1E4400967B1E2A4600212046EF
:10168400FFF72CFF02B0BDE8F0810024AAE7002593
:10169400B0E70023B3E70021B9E701F5F071D3E720
:1016A400089A0092013B2A462046FFF717FFE9E714
:1016B400E4210720E62107200A2207208988888858
:1016C40070B582B005468C4610461946069CAA425F
:1016D40001DD28461546614502DD0B4661469C4600
:1016E400002826DB2B4BB3F90030834200DC581E64
:1016F400002D20DBAB4200DC5D1E00291DDB264BE8
:10170400B3F900308B4200DC591EBCF1000F16DB2C
:10171400634501DC03F1FF3C2B1AACEB01060136F7
:1017240003FB06660123009363462A46FFF776FE11
:1017340025E00020D6E70025DCE70021DFE74FF0B5
:10174400000CE5E74FF480751EE0207894F801E082
:1017540094F802C002EB4203104901F803C003F1FC
:10176400010C01F80CE00233C854013203349542F1
:10177400EBD805EB45010948FFF79AFD761B2EB11E
:10178400B6F5807FDED835460022F0E7FFF73AFE53
:1017940002B070BDE4210720E6210720341E072093
:1017A4002DE9F04182B005461446824201DD04462B
:1017B40015468B4202DD1A460B461146002C52DBBD
:1017C400324AB2F90020A24200DC541E002D4CDB48
:1017D400AA4200DC551E002B49DB2D4AB2F9002039
:1017E4009A4200DC531E002943DB8A4200DC511E6E
:1017F4002E1B0136C91A01F1010C002E30DDBCF19B
:10180400000F2DDD234AB2F900201344224A82FB43
:1018140003121A44D917C1EB2221C1EB0111B3EB16
:10182400411128D40CEB0103B3F5F07F26DDC1F59B
:10183400F078ACEB0807089B009340F2DF132A46CC
:101844002046FFF73DFF08FB06F606EB4606089B1D
:101854001E4400967B1E2A4600212046FFF730FFD7
:1018640002B0BDE8F0810024AAE70025B0E7002318
:10187400B3E70021B9E701F5F071D3E7089A0092C4
:10188400013B2A462046FFF71BFFE9E7E421072036
:10189400E62107200A220720898888880C4B1B78B8
:1018A40003B9704700B583B00A4B1B7803EB4303BD
:1018B4005800094B1978C900084B0093CB1D421DF1
:1018C400FFF76EFF024B00221A7003B05DF804FBB1
:1018D400392207203A2207203B2207202424022011
:1018E4002DE9F04FA9B004460E469346414B5F7B69
:1018F40067B19D6815F4807F05D105F00F053E4B57
:1019040053F8255005E025F07F4502E0FFF75AFC27
:10191400054617B3FFF756FC04EB44044FEA440EA4
:10192400F100EFB2C5F30728C5F307455FFA80F964
:10193400C0F3072AC0F30746BBF11F0F01D84FF0CD
:10194400200BABF12002DF2A00D91F2200200392D2
:101954000B46714602959E4633E0264B986810F478
:10196400807F05D100F00F00234B53F82000D3E70C
:1019740020F07F40D0E7CC4616E053461BE03346C8
:10198400AB700134052C1BDCC4F105022BFA02F206
:1019940000EB400304EB430303EB430304AD1D449A
:1019A40012F00102E7D0BC46A0336B4403F890CC9C
:1019B400002AE2D043466B70002AE0D0029BDFE7A6
:1019C4000130072807DC0D4B039A03EBC20313F81D
:1019D40000B00024D6E773468E46194604AB009344
:1019E400CB1D0EF105027046FFF7DAFE29B0BDE803
:1019F400F08F00BFE8230220ACA40120ECA4012056
:101A04002DE9F04FABB0039004910592B34B5C7B8E
:101A140064B19F6817F4807F05D107F00F07B04BBE
:101A240053F8277005E027F07F4702E0FFF7CAFB71
:101A34000746DCB1FFF7C6FB039B03EB430A4FEAFF
:101A44004A0A049B4FEAC30B5FFA87F8C7F30729D6
:101A5400C7F30747C6B2C0F30725C0F30744902273
:101A6400002106A815F0A8FF00221EE09B4B9868F1
:101A740010F4807F05D100F00F00994B53F820003B
:101A8400DAE720F07F40D7E702EB420303F1A80135
:101A9400694401F8906C03F1A901694401F8905C70
:101AA400AA336B4403F8904C01322F2AECDD059BDA
:101AB4006A3B0E2B00F2DB81DFE813F04600750071
:101AC400A100CC00F900D901D9010F00D901D90135
:101AD400290154018101AE0144000022052A24DCBD
:101AE400002A0CDB02F1180303EB430306A9194493
:101AF400A8336B4403F8908C81F801908F70013205
:101B0400ECE7002A0EDB02EB42035B00033303EB3A
:101B1400430306A91944A8336B4403F8908C81F855
:101B240001908F700132072AEBDD06AB00930BF1B5
:101B340007030AF1050259465046FFF731FE2BB060
:101B4400BDE8F08F0022EEE70022032A12DC002A0F
:101B54000EDB052A0CDC02F1180303EB430306A990
:101B64001944A8336B4403F8908C81F801908F706A
:101B74000132EAE7002213E0002A10DB072A0EDC18
:101B840002EB42035B00033303EB430306A919444E
:101B9400A8336B4403F8908C81F801908F70013264
:101BA400042AE9DDC1E70022032A12DC002A0EDB45
:101BB400052A0CDC02F1180303EB430306A91944BC
:101BC400A8336B4403F8908C81F801908F70013234
:101BD400EAE70422072AA8DC002A0EDB02EB420310
:101BE4005B00033303EB430306A91944A8336B4496
:101BF40003F8908C81F801908F700132EAE7032298
:101C0400052A10DC002A0CDB02F1180303EB430362
:101C140006A91944A8336B4403F8908C81F8019009
:101C24008F700132ECE70422072A3FF77EAF002AC7
:101C34000EDB02EB42035B00033303EB430306A911
:101C44001944A8336B4403F8908C81F801908F7089
:101C54000132E9E70322052A10DC002A0CDB02F139
:101C6400180303EB430306A91944A8336B4403F890
:101C7400908C81F801908F700132ECE7002213E020
:101C8400002A10DB072A0EDC02EB42035B0003335D
:101C940003EB430306A91944A8336B4403F8908C5F
:101CA40081F801908F700132042AE9DD3DE70022BA
:101CB400052A10DC002A0CDB02F1180303EB4303B2
:101CC40006A91944A8336B4403F8908C81F8019059
:101CD4008F700132ECE7002216E000BFE8230220F7
:101CE400ACA40120002A0EDB02EB42035B000333A9
:101CF40003EB430306A91944A8336B4403F8908CFF
:101D040081F801908F700132072AEBDD0DE7032281
:101D1400052A10DC002A0CDB02F1180303EB430351
:101D240006A91944A8336B4403F8908C81F80190F8
:101D34008F700132ECE7002211E0002A0EDB02EB87
:101D440042035B00033303EB430306A91944A8339E
:101D54006B4403F8908C81F801908F700132072A4C
:101D6400EBDDE2E60022032A12DC002A0EDB052A60
:101D74000CDC02F1180303EB430306A91944A8334E
:101D84006B4403F8908C81F801908F700132EAE77C
:101D9400002211E0002A0EDB02EB42035B00033356
:101DA40003EB430306A91944A8336B4403F8908C4E
:101DB40081F801908F700132072AEBDDB5E600222D
:101DC400052A10DC002A0CDB02F1180303EB4303A1
:101DD40006A91944A8336B4403F8908C81F8019048
:101DE4008F700132ECE7002213E0002A10DB072A8F
:101DF4000EDC02EB42035B00033303EB430306A94F
:101E04001944A8336B4403F8908C81F801908F70C7
:101E14000132042AE9DD88E60022052A10DC002AC2
:101E24000CDB02F1180303EB430306A91944A8339E
:101E34006B4403F8908C81F801908F700132ECE7C9
:101E44000422072A3FF771AE002A0EDB02EB42039D
:101E54005B00033303EB430306A91944A8336B4423
:101E640003F8908C81F801908F700132E9E7059AAC
:101E740004990398FFF734FD61E600BFF0B5A7B0FD
:101E8400294B9B7B23B3294B1B780BB3284B1B7823
:101E940013BB284B1B782BB1234B1A78264B1B788A
:101EA4009A421CD0FFF7FAFC1F4A137803EB430352
:101EB4005C00A6B25578ED000534EF1D1F4B00936E
:101EC4003B46224629463046FFF77CFB002316E0BA
:101ED400FFF7E4FC27B0F0BDFFF7E0FCFAE7124B94
:101EE4005A78174B1B789A42DCD1F3E7134AD25C39
:101EF400D24303F19801694401F8902C01338F2BEC
:101F0400F4D902AB00933B46224629463046FFF7FC
:101F140047FC054B1978084A11705A78084B1A7017
:101F2400044B01221A70D5E7E82302203822072047
:101F340049220720392207203A220720242402209C
:101F44003B22072008B511F02BFA0E4B1A685B6888
:101F5400821A61EB0303002B0FDB0B4BC01841F11A
:101F64000001084B18605960084A137883F0010196
:101F74001170012B02D0FFF781FF08BDFFF78EFC23
:101F8400FBE700BFE0C2012020A1070038220720A0
:101F940032B3944623B3B0F5A07F21D2B1F5A07F2C
:101FA4001ED200B583B00244B2F5A07F03DDC0F5B4
:101FB400A07C1FFA8CFC5A18B2F5A07F02DDC1F593
:101FC400A0739BB20CEB00020B44DDF810C0CDF8FB
:101FD40000C0013B013AFFF7E3FB03B05DF804FBEB
:101FE400704700002DE9F04184B005460E461746BF
:101FF4001C46DDF8288090423BD0BD4202DA3B46C5
:102004002F461D46A64202DA234634461E46002FBA
:1020140053DB3E4BB3F90030BB4200DC5F1E002DA6
:102024004DDBAB4200DC5D1E002C4ADB384BB3F9C0
:102034000030A34200DC5C1E002E44DBB34200DC13
:102044005E1E0123009333462A4621463846FFF795
:10205400E5F9ED1B013505EB45054FEA28438DF8FD
:102064000C304FEA28238DF80D308DF80E800020B7
:1020740038E09942C1D1002844DB244BB3F9003045
:1020840083423FDD00293DDB214BB3F900308B4215
:1020940038DD012300930B46FFF7C0F94FEA2843CC
:1020A4008DF80C304FEA28238DF80D308DF80E8012
:1020B400032103A8FFF7FCF81FE00027A9E7002588
:1020C400AFE70024B2E70026B8E7124B9DF80C20D6
:1020D4001A54421C9DF80D109954821C9DF80E1040
:1020E40099540330A842F0DB05E02A4609490A481E
:1020F40015F0EAFE0134A642F7DA074815F0F3FEBC
:10210400FFF780F904B0BDE8F08100BFE4210720A7
:10211400E6210720DCC5012000800840F0B583B02B
:1021240006461546089C824201DD054616468B424A
:1021340002DD1A460B461146002D46DB2C4AB2F945
:102144000020AA4200DC551E002E40DBB24200DC17
:10215400561E002B3DDB274AB2F900209A4200DCD0
:10216400531E002937DB8A4200DC511EC91A01F1D3
:10217400010CBCF1000F26DD1F4AB2F90020134404
:102184001E4A82FB03121A44D917C1EB2221C1EB68
:102194000111B3EB411120D40CEB0103B3F5F07F33
:1021A4001EDDC1F5F073ACEB0307009440F2DF13BE
:1021B40032462846FFF716FF00947B1E3246002164
:1021C4002846FFF70FFF03B0F0BD0025B6E7002651
:1021D400BCE70023BFE70021C5E701F5F071DBE7A9
:1021E4000094013B32462846FFF7FCFEEBE700BFB4
:1021F400E4210720E62107200A220720898888880D
:1022040000B583B0074BB3F90030074AB2F9002098
:1022140000200090013B013A0146FFF77FFF03B025
:102224005DF804FBE6210720E421072000EB4000D1
:1022340002EB4202F2B14000C900DB004FEA420C5B
:10224400C3B130B583B00CEB0002013A0B44013B3F
:10225400094CA46814F4807F09D104F00F04074DDD
:1022640055F824400094FFF759FF03B030BD24F023
:102274007F44F7E7704700BFE8230220ACA40120A5
:1022840010B582B08DF8070001240E2344EC4030D1
:10229400FFF7BEF821460DF10700FFF709F8FFF735
:1022A400B1F802B010BD000010B582B08DF807007F
:1022B4004FF000030E2243EC40200D2443EC404039
:1022C40001220DF10701044816F0E2F84FF0010372
:1022D40043EC404002B010BD0080084038B50546CC
:1022E4000C463320FFF7E0FF280AFFF7C9FFE8B2E6
:1022F400FFF7C6FF0120FFF7C3FFE020FFF7C0FF91
:10230400200AFFF7BDFFE0B2FFF7BAFF38BD10B5F2
:1023140004463720FFF7C8FF200AFFF7B1FFE0B2F9
:10232400FFF7AEFF10BD0000002845D008B50146F8
:10233400224A138803441BB21380214A82FB0302FE
:102344001A44D817C0EB2220C0EB0010B3EB4010A6
:1023540026D40FFA80FC194BA3F800C0002916DD1F
:102364000B4620DBC3F3C7038BB116490A781A4422
:10237400D2B2142A28BF14220A70134A127832B136
:102384001A44D2B2142A28BF14220F4B1A700E4BCF
:102394001B7853B10D4815F0A6FDFFF733F808BDBF
:1023A40000F5F070D5E7CB1DDCE7094BA3F800C0BE
:1023B40080B2FFF7ACFFEDE7704700BF0A220720A9
:1023C4008988888834220720492207200080084011
:1023D4001A22072008B50820FFF7A6FF012335229B
:1023E40027210020FFF722FF034B5B7813B1013B49
:1023F400014A537008BD00BFE823022008B5084A0B
:102404000023137053780133DBB25370272B00D8A9
:1024140008BDFFF7DFFF024B27225A70F8E700BF21
:10242400E823022070B582B00546FFF737FA244B43
:1024340000241C705C709C70DC7007225A609C60E5
:102444001C735C7301269E73DC731C7483F8344024
:1024540083F8354083F836409C631A4B1C801A4B32
:102464001C801A4B1C701A4B1C702046FFF74FFF40
:1024740010F096FF174BC31841F10001164A136080
:102484005160164B1E70164B1C708DB10C4B9B6823
:1024940013F4807F10D103F00F03124A52F8233053
:1024A400009340F23F131A4600210846FFF736FE18
:1024B400FFF7E4FC02B070BD23F07F43F0E700BFF8
:1024C400E82302200A2207201A2207204922072093
:1024D4003422072020A10700E0C20120382207206F
:1024E40039220720ACA4012010B57D4B93F8342089
:1024F4000AB15B6900E00023012A3CD978498C6960
:10250400A0F14101342943D8DFE811F03700450038
:1025140051005D004200420042006B0042008A000C
:10252400BD0042004200420042004200420042001C
:102534004200420042004200420042004200420087
:102544004200420042004200420042004200420077
:102554004200420042006B0042001A024200420064
:1025640042001A02DF0042004200420042004200E0
:102574000E02420014020024C2E703B90123584AA0
:102584005278DBB29A4204D9D21AD2B2544B5A705E
:1025940010BD0022FAE703B9012351494A7852FADF
:1025A40083F3DBB2272B28BF27234B70F0E703B953
:1025B40001234B490A7852FA83F3DBB2342B28BF48
:1025C40034230B70E4E703B90123454A1278DBB2E4
:1025D4009A4204D9D21AD2B2414B1A70D8E70022D7
:1025E400FAE703B9012304B90124002B10DD002C00
:1025F40010DD282B10DCDBB2013BDBB2384A537010
:10260400352C0BDCE3B2013BDBB2354A1370BFE778
:102614000123ECE70124ECE72723EFE73423F4E775
:10262400022B00D01AB90120FFF7FCFEB0E773B10A
:10263400012BADD12A4B5B78FBB929490A780132C9
:102644000123D2B249780020FFF7F0FDA0E7244C23
:102654002078C0F135020123D2B26178FFF7E6FD9C
:102664006278262A94D8C2F12703511CDBB23522A2
:10267400C9B20020FFF7DAFD8AE7352200210846B7
:10268400FFF7D4FDD9E7022B0BD003B18AB9144963
:102694000878C0F135020123D2B24978FFF7C6FDAC
:1026A40076E7012335220E4949780020FFF7BEFD65
:1026B4006EE7012B7FF46CAF09490A780132D2B27C
:1026C40049780020FFF7B2FD62E732B9044B0721D5
:1026D4005960002199601973597300230BE000BFFE
:1026E400E8230220A149072048600020886008737D
:1026F40048730133DBB29A427FF64AAF181D9B49F7
:1027040001EB800149681B294AD801A050F821F047
:1027140015260020B1260020D1260020D126002035
:10272400D1260020D1260020D1260020C126002059
:10273400D1260020D1260020D1260020D126002039
:10274400D1260020D1260020D1260020D126002029
:10275400D1260020D1260020D1260020D126002019
:10276400D1260020D1260020B9260020D126002021
:10277400D1260020D1260020D1260020C926002001
:102784007A4901200873B4E7784900200873B0E758
:10279400764901204873ACE7744900204873A8E7E0
:1027A400A1F11E004D28A4D801A454F820F000BFC4
:1027B4001928002019280020192800201928002091
:1027C4001928002019280020192800201928002081
:1027D40023260020232800202B2800202B2800203B
:1027E4002B2800202B2800202B2800202B28002019
:1027F4002B2800202B280020232600203528002009
:102804002326002023260020232600202326002020
:102814002326002023260020232600202326002010
:102824002326002023260020232600202326002000
:1028340023260020232600202326002023260020F0
:1028440023260020232600202326002023260020E0
:1028540023260020232600202326002023260020D0
:1028640023260020232600202326002023260020C0
:1028740023260020232600202326002023260020B0
:1028840023260020232600202326002023260020A0
:102894002326002023260020232600202326002090
:1028A4003D2800203D2800203D2800203D28002010
:1028B4003D2800203D2800203D2800203D28002000
:1028C40023260020232600204B2800204B2800200C
:1028D4004B2800204B2800204B2800204B280020A8
:1028E4004B2800204B2800201E39C9B21F484160E4
:1028F400FFE61E4907204860FBE62839C9B21B4899
:102904008160F6E6194900208860F2E65A39C9B2B6
:1029140041F0080115484160EBE66439C9B241F061
:10292400080112488160E4E6104B1A789A705A78CC
:10293400DA702DE60D4B9A781A70DA785A7027E619
:102944000A4A92F83620002A3FF422AE192B7FF46B
:102954001FAE682814BF00200120044B9873002880
:102964007FF416AEFEF79AFF12E600BFE8230220BA
:1029740038B5954B1B7C032B00F2C880DFE813F0BD
:1029840004006300CF00BF001B2823D00D2825D0EE
:102994000A2827D0082828D009282FD00E2843D069
:1029A4000F2845D01F2840F2B180874BDB7B002BDA
:1029B40042D0854B024659781878FFF721F8824AAD
:1029C40013780133DBB21370342B40F29F80FFF78E
:1029D40015FD9BE07C4B01221A7497E07A4B002290
:1029E4001A7093E0FFF70AFD90E0774B1B78002BF9
:1029F40000F08C80013B744A137087E0724B1D78A1
:102A0400083505F0F805342D09D9342507E06E4C56
:102A140020226178FEF764FF2378013323706A4B28
:102A24001878A842F3D371E0674B0122DA736DE0A2
:102A3400654B0022DA7369E0634B024659781878D3
:102A4400FEF74EFFBBE7442815D8282853D328386F
:102A54001C2850D8DFE800F02A4F4F4F4F4F4F4FFC
:102A64004F4F4F4F4F4F4F2E364F4F4F4F4F4F4FAC
:102A74004F4F4F4F3E005B2808D063283BD10120C5
:102A8400FFF7D0FC504B00221A743FE04E4802235B
:102A94000374002180F8341080F8351080F8361063
:102AA40081632022143014F087FF2FE0464B032269
:102AB4001A742BE0444B1A789A705A78DA70002210
:102AC4001A7423E0404B9A781A70DA785A7000220C
:102AD4001A741BE03C4A53780133DBB25370272B42
:102AE40003D8394B00221A7410E0FFF773FC364BFD
:102AF40027225A70F5E7344B00221A7406E0302876
:102B040005D0422807D0304B00221A7438BD2E4B12
:102B14000122DA73F7E72C4B0022DA73F3E73F283C
:102B240020D0A0F13003DBB2092B24D93B282ED0CE
:102B3400254B93F83430072B0ED8234A92F83520CE
:102B4400002A3FD0204A916B1F4A5C1C82F8344013
:102B5400043302EB83025160FFF7C6FC1A4B0022D8
:102B64001A74D3E7184B9B8E002BDAD1164B012233
:102B740083F83620CAE7144A936B03EB8303303897
:102B840000EB43009063012382F83530BEE70E4B1F
:102B940093F83430072B0DD80B4A92F835207AB1CC
:102BA400094A916B084A581C82F83400043302EB3A
:102BB40083025160044B00229A6383F83520A5E711
:102BC4000021EFE70021BFE7E8230220074B1B7831
:102BD40003B9704710B50C46FFF7B4F9FEF75EFE73
:102BE4002046FFF7C5FEFFF749F910BDB8BF012025
:102BF40008B50023034A1380034A13800120FFF71A
:102C040011FC08BDE0210720E221072008B5144B80
:102C14001B782BB1134A1278934201D9132A00D995
:102C240008BDFEF73BFE0F4A1378013313700E4BB9
:102C3400B3F90030083B0D4A82FB03121A44D8173B
:102C4400C0EB2220C0EB00104201981A05D4064BB9
:102C5400188080B2FFF75BFBE2E700F5F070F6E75F
:102C640034220720492207201A22072089888888CD
:102C740008B5184B1B7803B908BDFEF70FFE154ABB
:102C84001378013BDBB2137073B9134B1A88134BDF
:102C94001A80124B1888FFF73AFB0E4B1B78002B57
:102CA400EAD1FFF7EBF8E7E70C4BB3F90020083261
:102CB4000B4981FB02311144D317C3EB2123C3EB2E
:102CC40003135901531A02D4044A1380E1E703F5AC
:102CD400F073F9E7492207200A2207201A22072065
:102CE4008988888808B50A4B1B7803B908BDFEF7A4
:102CF400D5FD074B00221A70064BB3F90000064BB2
:102D0400188080B2FFF703FBFFF7B8F8EEE700BFC7
:102D1400492207200A2207201A22072010B5114B46
:102D24001B787BB900F090FD041E17DB0D4B1B785C
:102D340033B1902C09D0912C0AD00B4B1B7853B98A
:102D4400204610BDFFF7FEF8ECE7FFF75FFFE6E76C
:102D5400FFF78EFFE3E7FFF7C5FFF1E74FF0FF341E
:102D6400EEE700BFB8BF01204922072008B5FEF7EF
:102D74002BFB864B4FF4A0721A80854B4FF4F072F4
:102D84001A80F020FFF790FAC320FFF779FAF020B9
:102D9400FFF78AFA9620FFF773FA3620FFF784FAD2
:102DA4004820FFF76DFA3A20FFF77EFA0620FFF776
:102DB40067FAB420FFF778FA0020FFF761FAB7202A
:102DC400FFF772FAC620FFF75BFAB920FFF76CFA37
:102DD4000220FFF755FAE020FFF752FAC020FFF770
:102DE40063FA8020FFF74CFA0620FFF749FAC12066
:102DF400FFF75AFA1520FFF743FAC220FFF754FAF7
:102E0400A720FFF73DFAC520FFF74EFA0420FFF78D
:102E140037FAE820FFF748FA4020FFF731FA8A2012
:102E2400FFF72EFA0020FFF72BFA0020FFF728FA0D
:102E34002920FFF725FA1920FFF722FAAA20FFF725
:102E44001FFA3320FFF71CFAE020FFF72DFAF020D9
:102E5400FFF716FA0620FFF713FA0F20FFF710FA10
:102E64000520FFF70DFA0420FFF70AFA2020FFF7E8
:102E740007FA3720FFF704FA3320FFF701FA4C2052
:102E8400FFF7FEF93720FFF7FBF91320FFF7F8F9F6
:102E94001420FFF7F5F92B20FFF7F2F93120FFF7A3
:102EA400EFF9E120FFF700FAF020FFF7E9F911202C
:102EB400FFF7E6F91B20FFF7E3F91120FFF7E0F92C
:102EC4000F20FFF7DDF90A20FFF7DAF93720FFF7C3
:102ED400D7F94320FFF7D4F94C20FFF7D1F9372075
:102EE400FFF7CEF91320FFF7CBF91320FFF7C8F94A
:102EF4002C20FFF7C5F93220FFF7C2F9F020FFF7C5
:102F0400D3F93C20FFF7BCF9F020FFF7CDF9692095
:102F1400FFF7B6F93520FFF7C7F90020FFF7B0F93E
:102F24001120FFF7C1F9782010F044F92920FFF7A8
:102F3400BBF9142010F03EF92120FFF7B5F92A203F
:102F4400FFF7B2F90020FFF79BF90020FFF798F98B
:102F54000120FFF795F93F20FFF792F92B20FFF7A7
:102F6400A3F90020FFF78CF90020FFF789F901206D
:102F7400FFF786F93F20FFF783F92C20FFF794F938
:102F840000210846FFF7AAF908BD00BFE421072085
:102F9400E62107202DE9F8430A200FF07BFC0B20E3
:102FA4000FF078FC0C200FF075FC0D200FF072FC74
:102FB4000E200FF06FFC0F200FF06CFC4FF00A098D
:102FC400012545EC44904FF00B0845EC44800D2757
:102FD40045EC44700E2345EC44300F2645EC446028
:102FE4000C490D4811F0FCFF294648460FF0F8FB48
:102FF400294640460FF0F4FB29460C200FF0F0FB65
:1030040029460C200FF022FC45EC407045EC406052
:10301400BDE8F88340787D010080084008B5FFF7DB
:10302400B9FFFFF7A3FEFEF7EFF80120FEF7F4F86F
:10303400054B4FF47F421A60044B00221A600120B2
:10304400FFF7F0F908BD00BF2C110220281102205F
:1030540010B40B4B1A68531CDBB20A490968994235
:1030640007D009498854BFF35F8F054A136010BC29
:103074007047044C21680131C9B22160F1E700BFF7
:10308400C0220220C4230220C422022070B50646B6
:103094000D46002403E0305DFFF7DAFF0134AC4253
:1030A400F9D370BD00B583B01B238DF804305B23C6
:1030B4008DF805308DF80600032101A8FFF7E6FF1F
:1030C40003B05DF804FB00B583B01B238DF8043016
:1030D4004F238DF805308DF80600032101A8FFF772
:1030E400D5FF03B05DF804FB084B1B68084A12685F
:1030F4009A4208D0074AD05CBFF35F8F0133DBB23A
:10310400024A136070474FF0FF307047C423022017
:10311400C0220220C42202202DE9C04385B0064605
:103124000F469046994610F03BF90B9B181841F155
:10313400000100290DDB029003919DF828300093D3
:103144004B4642463946304612F01AF905B0BDE8FE
:10315400C0834FF0FF306FF00041ECE708B510F08A
:103164001FF94FF47A72002314F08CFA08BD0000A2
:1031740010B50E4B196849000D4B9A680AB941F213
:1031840088320B4BDB6803B90A4B9A4200D91346C9
:103194008A4200D80A469A4200D81346034A13606A
:1031A400054CA361FFF7DAFF206210BDFCBF0120CC
:1031B400F42D022020A107003415022010B5064B7F
:1031C4009B680BB941F28833044A1360044CA36131
:1031D400FFF7C4FFE06110BDF42D0220FCBF012005
:1031E400341502202DE9C04385B006460F469046AB
:1031F400994610F0D5F80B9B181841F100010029ED
:103204000DDB029003919DF8283000934B46424613
:103214003946304612F0D1F805B0BDE8C0834FF00E
:10322400FF306FF00041ECE770B586B00D468DF8C5
:103234000F000022ADF81420514B1B68EFF31084EB
:1032440072B6D3E8CF0F01210028FAD1C3E8401F9A
:103254000028F6D1BFF35F8F4A498B6801338B6036
:103264004FF47A730193009201230DF10F021F2191
:103274004548FFF751FF012835D14FF47A73019384
:1032840000260096022305AA1F213F48FFF7AAFF44
:103294003B4B1B68C3E88F6F84F31088022832D13C
:1032A4009DF814209DF80F309A424AD19DF81530AC
:1032B4002B70334C2368EFF3108572B6D3E8CF1F1D
:1032C40001220029FAD1C3E8412F0029F6D1BFF326
:1032D4005F8FFFF773FF23680020C3E88F0F85F328
:1032E400108806B070BD274AD3680133D360FFF756
:1032F4003FFF234B1A680023C2E88F3F84F31088F2
:103304004FF0FF30EDE71E4C2368EFF3108572B6E3
:10331400D3E8CF1F01220029FAD1C3E8412F0029A5
:10332400F6D1BFF35F8F174AD3680133D360FFF739
:103334001FFF2268C2E88F6F85F310884FF0FF30BB
:10334400CFE70F4C2368EFF3108572B6D3E8CF1F95
:1033540001220029FAD1C3E8412F0029F6D1BFF395
:103364005F8F084AD3680133D360FFF701FF2268F7
:103374000023C2E88F3F85F310884FF0FF30B0E799
:1033840030150220341502201CC1012010B584B070
:10339400044609238DF80F300022ADF80C201E4995
:1033A4000B6801330B604FF47A730193009201238D
:1033B4000DF10F021F211948FFF7AEFE012818D1A5
:1033C4004FF47A73019300230093022303AA1F216D
:1033D4001248FFF707FF022814D19DF80C309DF81E
:1033E4000D2043EA02232380FFF7E8FE002004B007
:1033F40010BD094A536801335360FFF7B9FE4FF01B
:10340400FF30F4E7044A536801335360FFF7B0FE1A
:103414004FF0FF30EBE700BF341502201CC1012040
:1034240070B5032107200FF0DBF9032106200FF00C
:10343400D7F91D491D4811F079FF00220121072009
:103444000FF0EAF90022012106200FF0E5F901202E
:103454000FF0BAFA0FF0E0FA154B18600025154B7F
:103464001D60154B1D60154B1D70154B1D60154CD3
:1034740024222946204614F09FFA41F28836124B42
:103484001E60A661114C20222946204614F094FAAD
:1034940026600F4B6360A6600E4BE360102323612C
:1034A4000D4B01221A7070BD801A06001CC1012048
:1034B40030150220C0220220C42302204522072006
:1034C4008C06022034150220FCBF0120F42D0220BA
:1034D40090D0030020A107003522072010B582B048
:1034E400524B1C78032C30D8DFE804F002395B7DA2
:1034F4000DF107010B20FFF797FE30BB9DF8073055
:103504009DF90720002A28DB03F07F03642B00D9F0
:103514006423474A1168EFF3108072B6D1E8CFEF05
:103524005FF0010CBEF1000FF8D1C1E84ECFBEF13F
:10353400000FF3D1BFF35F8F3E490B704C701268DC
:103544000023C2E88F3F80F31088384A1378013390
:1035540003F00303137002B010BD0124D4E70DF18E
:1035640007010120FFF760FE0028EED1304B1A68F6
:10357400EFF3108172B6D2E8CF4F0120002CFAD1BC
:10358400C2E8440F002CF6D1BFF35F8F9DF807000B
:10359400284A10711A680023C2E88F3F81F310880B
:1035A400D3E70DF107010520FFF73EFE0028CCD13B
:1035B4001F4B1A68EFF3108172B6D2E8CF4F012087
:1035C400002CFAD1C2E8440F002CF6D1BFF35F8F70
:1035D4009DF80700174A90701A680023C2E88F3FCD
:1035E40081F31088B1E70DF107010A20FFF71CFEF3
:1035F4000028AAD10E4B1A68EFF3108172B6D2E8F4
:10360400CF4F0120002CFAD1C2E8440F002CF6D190
:10361400BFF35F8F9DF80700064AD0701A68002335
:10362400C2E88F3F81F310888FE700BF452207204F
:103634003015022000C00120794B1B78002B00F0CC
:10364400ED8070B584B0774B1B68EFF3108672B6CB
:10365400D3E8CF1F01220029FAD1C3E8412F002962
:10366400F6D1BFF35F8F704B1D691DB1202D02D9B8
:10367400202500E00425002413E06A4B1A68002387
:10368400C2E88F3F86F31088C6E0664B1A680023B1
:10369400C2E88F3F86F31088BEE0644B00221A60B4
:1036A4000134A54240F2B1800023ADF806300DF19B
:1036B4000600FFF76BFE0028DFDBBDF80630002BA9
:1036C400E3D04AF203529342E7D04AF202529342C1
:1036D40017D0DAB2012AE3D11B0A1846A3F1A102DA
:1036E400172A00F28280DFE802F01014181C202B45
:1036F40036414C5780808080808080808080626DDD
:103704007C784A4B01221A60CAE75020FFF7DBFCA1
:10371400C6E75120FFF7D7FCC2E75220FFF7D3FCDE
:10372400BEE75320FFF7CFFCBAE7414B93E8030011
:1037340002908DF80C10052102A8FFF7A7FCAFE753
:103744003C4B93E8030002908DF80C10052102A86D
:10375400FFF79CFCA4E7384B93E8030002908DF834
:103764000C10052102A8FFF791FC99E7334B93E86D
:10377400030002908DF80C10052102A8FFF786FCC7
:103784008EE72F4B93E8030002908DF80C1005216F
:1037940002A8FFF77BFC83E72A4B93E8030002901F
:1037A4008DF80C10052102A8FFF770FC78E71F4B79
:1037B4001B681BB19020FFF74BFC71E74120FFF71A
:1037C40071FC6DE7194B1B681BB19120FFF740FC9E
:1037D40066E74220FFF766FC62E74320FFF762FCDE
:1037E4005EE74420FFF75EFC5AE7A3F16102192A61
:1037F40004D80E4A12680AB1A3F16000FF283FF60C
:103804004FAFC0B2FFF724FC4AE7064B1A68002307
:10381400C2E88F3F86F3108804B070BD704700BFC4
:103824003522072030150220F42D02208C060220B8
:10383400308C0120388C0120408C0120488C0120E0
:10384400508C0120588C012008B5FFF74DFC00284E
:1038540000DB08BDFFF7F0FEFFF746FCF9E70000C8
:103864000346134A1278E2B1124A1268CAB1EFF35E
:10387400108C72B6D2E8CF0F01210028FAD1C2E829
:10388400401F0028F6D1BFF35F8F0B4A03CA1860AC
:103894005960084B1A680023C2E88F3F8CF31088E4
:1038A40070474FF0FF321A605A6000225A70704716
:1038B400352207203015022000C0012030B585B024
:1038C40061F07F018DF80C108DF80D201C4B1B68E6
:1038D400EFF3108572B6D3E8CF1F01220029FAD185
:1038E400C3E8412F0029F6D1BFF35F8F154A13694E
:1038F400013313614FF47A7301930023009302237D
:1039040003AAC1B21048FFF707FC0446022811D0ED
:103914000C4A536901335361FFF72AFC084B1A68B8
:103924000023C2E88F3F85F31088022C05D1184686
:1039340005B030BDFFF742FCF0E74FF0FF30F7E78A
:1039440030150220341502201CC1012010B5044694
:10395400024605211F20FFF7B1FFD0B90D4B1A68AD
:10396400EFF3108172B6D2E8CFEF5FF0010CBEF135
:10397400000FF8D1C2E84ECFBEF1000FF3D1BFF370
:103984005F8F054A94701A680023C2E88F3F81F361
:10399400108810BD3015022000C0012010B5044667
:1039A40002460A211F20FFF789FFD0B90D4B1A6880
:1039B400EFF3108172B6D2E8CFEF5FF0010CBEF1E5
:1039C400000FF8D1C2E84ECFBEF1000FF3D1BFF320
:1039D4005F8F054AD4701A680023C2E88F3F81F3D1
:1039E400108810BD3015022000C0012008B520B198
:1039F4000246052802D8062200E006220E211F20D6
:103A0400FFF75CFF08BD08B5024600B90122082192
:103A14001F20FFF753FF08BD104B1B78D3B1104B89
:103A24001B68CBB1EFF3108272B6D3E8CF0F01213C
:103A34000028FAD1C3E8401F0028F6D1BFF35F8FF6
:103A4400084B1868064B19680023C1E88F3F82F3BE
:103A54001088704704487047034870473522072090
:103A640030150220FCBF012020A1070010B5044638
:103A7400174B1B78002B23D0164B1B6803B3EFF3B3
:103A8400108E72B6D3E8CF1F01220029FAD1C3E801
:103A9400412F0029F6D1BFF35F8F84460E4C0FCC23
:103AA400ACE80F000FCCACE80F002368CCF8003072
:103AB400084B1A680023C2E88F3F8EF3108810BDAC
:103AC40024220021204613F077FF044BA361F6E77C
:103AD40035220720301502203415022020A10700CA
:103AE40010B504461A4B1B780BB31A4B1B68F3B181
:103AF400EFF3108E72B6D3E8CF1F01220029FAD15A
:103B0400C3E8412F0029F6D1BFF35F8F8446124CDE
:103B14000FCCACE80F0094E80F008CE80F000D4BBD
:103B24001A680023C2E88F3F8EF3108810BD20224C
:103B34000021204613F040FF41F288332360074AF6
:103B44006260A360064BE36004232361EEE700BFD9
:103B54003522072030150220F42D022090D00300D6
:103B640020A107003C4B1B78002B5FD030B589B0F7
:103B74003A4B1C68002C5CD0EE468446BCE80F002F
:103B8400AEE80F009CE80F008EE80F00009BB3F531
:103B94007A7F51D3019A42F20F739A424FD9029B12
:103BA400B3F57A7F4ED3039A93424ED82C4B9A4264
:103BB4004ED808B904230493049B202B01D9202355
:103BC4000493EFF3108572B6D4E8CF2F0123002AB3
:103BD400FAD1C4E8423F002AF6D1BFF35F8F214CEB
:103BE400A446EE46BEE80F00ACE80F009EE80F00C6
:103BF4008CE80F00A3681C4A1268934201D91A4A40
:103C04001360184BDB68184A1268934201D2164AB3
:103C14001360154B1A68154B9A61104B1B680020F2
:103C2400C3E88F0F85F3108809B030BD4FF0FF3023
:103C340070474FF0FF30F7E74FF0FF30F4E74FF0F5
:103C4400FF30F1E74FF0FF30EEE74FF0FF30EBE7E6
:103C54004FF0FF30E8E700BF35220720301502207F
:103C6400404B4C00F42D0220FCBF012034150220EF
:103C7400134B1B78EBB1134B1B68EBB1EFF31082C2
:103C840072B6D3E8CF0F01210028FAD1C3E8401F50
:103C94000028F6D1BFF35F8F0B4B186808B941F2C7
:103CA4008830084B19680023C1E88F3F82F31088DD
:103CB400704741F28830704741F28830704700BF46
:103CC4003522072030150220F42D0220114B1B78D9
:103CD400E3B1114B1B68DBB1EFF3108272B6D3E88A
:103CE400CF0F01210028FAD1C3E8401F0028F6D1E4
:103CF400BFF35F8F094B586800B90948064B196830
:103D04000023C1E88F3F82F310887047044870474E
:103D1400034870473522072030150220F42D022075
:103D240090D0030070470000074B01229A730020D3
:103D3400D873064A40F6BF71D1814FF0020C83F864
:103D440010C05874118270471C1E0720501307209E
:103D54004FF0010C8C451CDC00B508E00D4B4FF412
:103D6400486C23F812C00132F4468E450FDC0CF186
:103D7400010E094B03F812C003EB420358700128EB
:103D8400ECD0044B40F6BF7C23F812C0EBE75DF89F
:103D940004FB7047501307201C1E072070B5544BBA
:103DA4001B68D3B100250123082B18DC5A1E02EB33
:103DB4004212504901EB82014F4803EB430400EBEC
:103DC400C4029160516040F834108421D160002114
:103DD4001161422151610133E6E70125E3E7002146
:103DE40014E001F10903454A52F82140424A03EB29
:103DF400430C02EBCC008460446042F83C408424D1
:103E0400C460002404614223436101310F29E8DDC9
:103E14000023072B08DC03F10901394A4FF44860F9
:103E240022F811000133F4E72DB9FFF77DFF304B81
:103E340008221A6070BD0FF0B3FA324C041941F134
:103E44000006002E0EDB0FF0ABFA201A66EB010120
:103E5400012871F100010ADB012001F013F90028A7
:103E6400F1D005E04FF0FF346FF00046EBE700259A
:103E74004DB3012211460220FFF76AFF02220421FA
:103E84000120FFF765FF062201210020FFF760FFF4
:103E94000FF086FA1C4C041941F10005002D0DDBCE
:103EA4000FF07EFA201A65EB0101012871F100017F
:103EB400F6DA1649164805F0C9FFB6E74FF0FF34A5
:103EC4006FF00045ECE7022201210020FFF740FFDC
:103ED400012211460220FFF73BFF032204210020A8
:103EE400FFF736FF09490A4805F0B0FF9DE700BF18
:103EF400301E072084150720C41B072070B601203C
:103F040050130720404B4C0080841E00608C01201D
:103F1400648C012008B5FFF783FAFFF77FF8FEF7FA
:103F24006FF900F052FC01F0F5F8FFF737FF08BD18
:103F340008B50346074A12F8100048B102EB4303E0
:103F44005B7803EB8303044A52F82330C9B29847E1
:103F540008BD00BF1C1E072008C0012008B5034689
:103F6400084A12F8100050B102EB43035B7803EBEC
:103F74008303054A02EB83035B68984708BD02206C
:103F8400FCE700BF1C1E072008C0012010B5044632
:103F9400114B1B685BB90A2804D0E1B2012000F080
:103FA40019FC10BD0D21012000F014FCF5E70A28CE
:103FB40008D00120FFF7D2FF0128FAD12146FFF7EC
:103FC400B7FFEEE70120FFF7C9FF0128FAD10D2161
:103FD400FFF7AEFFEDE700BF301E0720012070475A
:103FE40008B50346074A12F8100048B102EB430330
:103FF4005B7803EB8303044A02EB83039B689847D3
:1040040008BD00BF1C1E072008C001207047000027
:104014000A46084B13F8101059B110B503EB4003CE
:104024005B7803EB8303044C04EB83031B6998471D
:1040340010BD70471C1E072008C0012038B501249C
:1040440000E001340F4B1B68A3421ADB0E4B13F83C
:104054001430002BF5D00C4B03EB44035D7805EBD7
:1040640085020A4B03EB8203DB68074A12F814004B
:104074009847011EE5DB20460BF098FF0028EED19F
:10408400DFE738BD301E07201C1E072008C00120B2
:1040940038B50C460179172904D0084805F0D6FE36
:1040A400012038BD0568254428460CF024F929462A
:1040B40020440CF02BF90020F3E700BF808C012092
:1040C40070B505460422264913F0C8FC002844D1E3
:1040D400244B00221A60043524E0013423781BB1F8
:1040E4002C2B01D00A2BF8D113B1002304F8013B87
:1040F40003221D49284613F0B1FCB8B90335012643
:104104002B78E3B1284613F017FD16490B680133E9
:10411400164A02F8130002EB430256700B60062B9A
:1041240014DC25462B78A3B12C46D7E7042210498A
:10413400284613F093FC10B904350026E0E729461D
:104144000C4805F083FE064808F0A0F90A4808F078
:104154009DF9FFF723FE012000E0002070BD00BFA1
:10416400A08C0120301E0720A88C01201C1E0720D3
:10417400AC8C0120B48C0120C88C012070B582B0B5
:1041840004460169384805F061FE636B0093236BB4
:10419400E26AA16A354805F059FE636A0093236A0E
:1041A400E269A169324805F051FEE3680093A3680F
:1041B400626821682F4805F049FE636C0193236C03
:1041C4000093E36B6269A16B2B4805F03FFE2B481B
:1041D40005F0EEFB4FF0E025D5F8280D05F070FD55
:1041E400274805F0E5FBD5F82C0D05F069FD2548B9
:1041F40005F0DEFBD5F8300D05F062FD224805F030
:10420400D7FBD5F8340D05F05BFD204805F0D0FB55
:10421400D5F8380D05F054FD1D4805F0C9FBD5F857
:104224003C0D05F04DFD1B4805F0C2FB1A4DA5F5EC
:10423400006605F53E332A463146184805F006FE69
:104244002B46A5F5D7623146154805F0FFFDE16B15
:10425400226CB36B0093336B521B491B114805F05E
:10426400F5FD114808F012F9D48C0120FC8C0120D2
:10427400188D0120348D0120508D0120748D012072
:10428400808D0120888D0120908D0120988D012042
:10429400A08D01207893012014360220A88D0120DE
:1042A400CC8D0120E48D0120148E012038B5044604
:1042B400436813F8023C0E4D6B72C3682B620369AA
:1042C4006B624369AB628369EB6201232B7208F072
:1042D40031FB2A69B2F1FF3F02D0002129756975CB
:1042E400034B00211972E260B3F91430236138BD25
:1042F400142E022008B5FFF70DFE0C4B4FF402728A
:104304001A800B4B4FF49B721A8019200EF0C2FADC
:1043140019234FF0010242EC443042EC4030EFF3F9
:10432400108372B608F07CFD002008BD0E22072021
:104334000C220720704770477047704708B510F08B
:104344009FFB0022114610460FF0BAFB08BD000087
:1043540008B501200EF02EFF10F092FB024BD3E9BA
:1043640000010EF0FFFEF9E728BB012000290DDB58
:1043740070B10D4B98420DD343180B4A1268526D1D
:10438400934200D9111A61B9084604E04142EFE7AB
:10439400002000E00020044B0E221A7500225A75FA
:1043A40070470846704700BF142E022008B500224B
:1043B400FFF7DCFF08BD08B50122FFF7D7FF08BDF2
:1043C40010B58AB00C460138082800F21A81DFE8DB
:1043D40010F009000D00250057006D008300A300B4
:1043E400D600F700002108460FF0C9FB082120463B
:1043F400FFF7E1FF20B94FF0FF3420460AB010BDAB
:1044040001A8FFF72DFA0822214601A80BF034FF7A
:1044140004460028F1D04FF0FF34EEE70121204696
:10442400FFF7C4FF10B94FF0FF34E6E7012201A9FA
:1044340020460BF0F9FE0446F8B99DF80430642BCD
:1044440007D9744B16221A7500225A754FF0FF349F
:10445400D3E7C3EB032080B26F4BA3FB0030C0F360
:104464004710FFF773FA0028C7DA6A4B05221A755A
:1044740000225A754FF0FF34BFE74FF0FF34BCE71A
:1044840024212046FFF797FF10B94FF0FF34B4E71B
:1044940001A8FFF7EBFA2422214601A80BF0ECFE59
:1044A40004460028A9D04FF0FF34A6E72021204677
:1044B400FFF781FF10B94FF0FF349EE701A8FFF723
:1044C4000FFB2022214601A80BF0D6FE044600284B
:1044D40093D04FF0FF3490E720212046FFF766FF8A
:1044E40010B94FF0FF3488E7202201A920460BF0D1
:1044F4009BFE044610B14FF0FF347EE701A8FFF79E
:1045040031FB0028BFF679AF424B16221A75002200
:104514005A754FF0FF3470E701212046FFF746FF3C
:1045240010B94FF0FF3468E7012201A920460BF0CF
:104534007BFE044600BB9DF80430642B07D9354B41
:1045440016221A7500225A754FF0FF3455E7C3EB53
:10455400032080B2304BA3FB0030C0F34710FFF7B9
:104564001DFA0028BFF649AF2A4B05221A7500220E
:104574005A754FF0FF3440E74FF0FF343DE7012117
:104584002046FFF713FF10B94FF0FF3435E701223F
:1045940001A920460BF048FE044610B14FF0FF3449
:1045A4002BE79DF80400FFF721FA0028BFF625AF9A
:1045B400184B05221A7500225A754FF0FF341CE778
:1045C40001212046FFF7F2FE10B94FF0FF3414E743
:1045D400012201A920460BF027FE044610B14FF03A
:1045E400FF340AE79DF80400FFF70DFA0028BFF630
:1045F40004AF084B05221A7500225A754FF0FF3498
:10460400FBE6044B16221A7500225A754FF0FF344C
:10461400F3E600BF142E02201F85EB5138B5144673
:10462400EFF3108572B601F118004FF480510003C6
:1046340013F004FE85F310880CB1002323700020CE
:1046440038BD38B5084611461C46EFF3108572B6DE
:10465400C0304FF40072400213F078FE85F31088E6
:104664000CB100232370002038BD10B5039C02EB6D
:1046740041211A4601F1A05101F5C031029813F00D
:1046840021FB0CB100232370002010BD82B08C46A6
:10469400184B984214BF00230123174A32F91330F0
:1046A4008B4205D08DF807C000210DF107021CE0F4
:1046B4000D238DF8073000210DF107020029F1D1F7
:1046C400836913F0200FFBD1134613F8012B02600A
:1046D40001311A46F2E7836913F0200FFBD1134628
:1046E40013F8012B026001311A460029F3D002B0FD
:1046F400704700BF00800740342107202DE9F041B6
:104704000F4616461D46DDF8188080B3204C4FF442
:10471400E13120460FF076F8022138460EF060F8B9
:10472400022130460EF05CF8002120460FF058F8C4
:10473400012120460FF04DF8002D1ADCB8F1000FCE
:104744001CDC04F13002002D1DDD4FF40043B8F1F0
:10475400000F1ADD4FF480410B43216B4B4003F4EF
:10476400404302F5805213602046BDE8F081094CB5
:10477400CDE7022100200EF033F8DFE7022100200C
:104784000EF02EF8DDE70023E1E70021E4E700BFA7
:10479400008007400000074000B583B040B9009096
:1047A400034601220146FFF7A9FF03B05DF804FBAD
:1047B400092300930823072206210120FFF79EFF07
:1047C400F3E708B50EF0B6FF08BD08B50020FFF703
:1047D400E3FF08BD08B5012807D00548836913F035
:1047E400200FFBD1FFF752FF08BD0248F6E700BFD8
:1047F400008007400000074070470000012807D0F0
:10480400044B9B6913F0200F0CBF0120002070475C
:10481400014BF6E70080074000000740012806D05E
:10482400054B9A6912F0100F03D118687047034BB7
:10483400F7E74FF0FF307047008007400000074063
:10484400F8B505461646481EFFF7A6FF044626BBE4
:10485400184800EB4510038903F00F01164A52F87B
:104864002110F9B113F0400F20D10127C3F3011532
:10487400053513F4807F1BD1002613F4007F00D08C
:10488400022620460EF066FF33463A462946204665
:104894000EF089FFF8BD0AF0F5FEA36913F0800F4E
:1048A400F9D0D5E72046FFF78CFFF3E70227DDE7D1
:1048B4000126E2E7A4190720B0B60120034660B13F
:1048C400426D32B9064A02F500714165A2F50062F3
:1048D4005163586D034BC01A70470020704700BFE6
:1048E40014360220142E022008B5FFF7E7FF00F665
:1048F400FF70000B08BD00008446002300E0013374
:104904004C2B0ADC064A02EB430012F813206245E2
:10491400F5D142788A42F2D170470020FCE700BF0B
:1049240090D0012008B5064BC01A4011054B03FB7B
:1049340000F0C0B20E2800D808BD034807F0A6FD59
:104944003C060720ABAAAAAA248E012038B5044647
:10495400FF210846FFF7D0FF054640B90121204654
:1049640008F01EFC0028F3D1024805F06FFA28462F
:1049740038BD00BF308E012010B50446FFF7D2FFCA
:10498400002300E001334C2B0DDC084A12F81320FD
:104994009042F7D1054A02EB430CFF218CF8011039
:1049A40002F81310EEE70023238310BD90D00120FA
:1049B400F8B50F4B1B68834216D00546FFF794FFEA
:1049C40006462846FFF7AEFF07460024B44207DA3E
:1049D4002846FFF7BBFF48B1077044700134F5E780
:1049E40001232B830020F8BD0020FCE70C20FAE70C
:1049F400142E02200023184601E0013001334C2B11
:104A040005DC044A12F81320FF2AF6D1F6E78000E9
:104A1400704700BF90D0012008B59A22FF210348B7
:104A240012F0CAFF024B00221A6008BD90D0012088
:104A3400142E02202DE9F04383B004461D4B186860
:104A4400FFF770FF81462046FFF76CFF8046204643
:104A5400FFF74AFF07460026BE4227DAF4B2214692
:104A64004846FFF749FF054621464046FFF744FF05
:104A74000446C5B1B8B1104BE91A4910C31A5B100A
:104A84000C484FF4805200EB013100EB033013F07B
:104A940019F92B88ADF8043023882B80BDF8043035
:104AA40023800136D8E7054807F0F0FC03B0BDE8E1
:104AB400F08300BF142E022090D00120488E0120E4
:104AC400030A08D0082B01D000207047C0B2012887
:104AD40003D0002070470120704701207047000078
:104AE4002DE9F04782B0038BE3B18146224B1A884B
:104AF4004FF6FF739A423BD008F0BCFA03B2B3F10D
:104B0400FF3F37D01FFA80FA0AEB4A06F601B6B225
:104B14004846FFF707FF80464846FFF7E5FE07468D
:104B240000251BE0154807F0B1FCE9B24046FFF749
:104B3400E3FE0446124BC31A5B1001220092114A91
:104B440002EB03334FF4805206EBC5010A48008898
:104B540008F0FEFAFF23637023700135BD42E4DBE5
:104B64000020A9F81800A9F81AA002B0BDE8F0873F
:104B74000C20FAE70C20F8E744C00120588E0120ED
:104B840090D00120142E02202DE9F04383B0074673
:104B940001EB4101CE01B6B2FFF7C4FE81463846AF
:104BA400FFF7A2FE8046002517E03846FFF7CEFE49
:104BB40004460E4BC31A5B10012200920C4A02EB0E
:104BC40003334FF4805206EBC5010A48008808F00D
:104BD40081FA84F80090657001354545E5DB0123D1
:104BE4003B8300237B8303B0BDE8F08390D0012096
:104BF400142E022044C001202DE9F04383B0044662
:104C0400038B4BB12046FFF78DFE80462046FFF70D
:104C14006BFE814600241DE0418BFFF7B5FFF1E7F1
:104C240003EB44035B78A3421ED112E01A4807F059
:104C34002DFC4FF48052284607F0E4F9174B33F863
:104C44001420ADF80420328823F81420BDF8043071
:104C5400338001344C451CDA114D05EB04350F4B00
:104C640013F81470B845DBD0E1B24046FFF744FEB8
:104C740006460028DAD0094BC31A5B10084901EB39
:104C84000331FF2FD5D14FF48052284613F01AF880
:104C9400D4E703B0BDE8F083488E012090D0012012
:104CA400142E02202DE9F0410D461C4B1F68384696
:104CB400FFF71AFE0446804605F5BF551F352D1330
:104CC4003846FFF72FFE0646A54222D3A54213D944
:104CD400AC4211DA3846FFF739FEE0B10670447091
:104CE4000134F5E7E1B23046FFF706FEFF234370D7
:104CF400037001344445F5D3084B03EB05327A6560
:104D04005A63AD00BD653846FFF776FF0020BDE865
:104D1400F0812C46EEE70C20F9E700BF142E0220A8
:104D24000E49814217D810B504460B685B6D834267
:104D340001D9002010BD411A0020FFF7B3FF00285D
:104D4400F8D0064B1B685A6DA21A9988044805F0DE
:104D54007DF80C20EEE71620704700BF142E0220C9
:104D6400688E012030BF7047EFF305806946F3B4C5
:104D74004046494652465B460FB4684633498D4621
:104D8400FFF7FCF9069832490860324806907047EC
:104D94000FB460462E49096803B568462E498D460E
:104DA40001B4FFF783FA01BC854607F003F90DBC93
:104DB4009E46844603BC02B09746E0B541464A4647
:104DC40053465C4665463EB401B424496A468A614A
:104DD40007F06AFB1D498D46041CFFF70DFFBFF366
:104DE4006F8F012020701D4881698D4600201C4969
:104DF400088001BC3EBC884691469A46A346AC4610
:104E0400E0BDE0B541464A4653465C4665463EB47D
:104E1400818802B411496A468A6103B46C460B491D
:104E24008D46FFF707FEBFF36F8FA54603BC07F05F
:104E340095F900200A49088001BC00203EBC884640
:104E440091469A46A346AC46E0BD000000200820E7
:104E54004C220720C04C002014360220142E0220BD
:104E64001422072010B5164B1A68EFF3108472B69B
:104E7400D2E8CFEF5FF0010CBEF1000FF8D1C2E829
:104E84004ECFBEF1000FF3D1BFF35F8F5C60827C25
:104E94000F2A0CD8437CC1540133594203F00F0349
:104EA40001F00F0158BF4B42437401328274044B2A
:104EB40019685B680022C1E88F2F83F3108810BD46
:104EC4008406022010B50346154A1068EFF31081DA
:104ED40072B68C46D0E8CF4F5FF0010E002CF9D1AA
:104EE400C0E844EF002CF5D1BFF35F8F5160987C8C
:104EF40070B11A7C13F802E00132514202F00F0241
:104F040001F00F0158BF4A421A7401389874704670
:104F1400034B1A680023C2E88F3F8CF3108810BD3E
:104F2400840602202DE9F04782B00021084611F0E2
:104F3400FFFF0EF035FA074689460646884666E0C6
:104F44000134032C22DCE5B2284611F06FFD002861
:104F5400F6D004EB8402C4EBC202374B134493F83B
:104F64002530002BECD010461030334B184403305E
:104F7400FFF7A8FF8DF8070001220DF1070128466D
:104F840011F032FD284611F0CDFCD9E7002406E0EB
:104F94004FF0FF31C9B22846FFF764FF0134032CF8
:104FA4001ADC5FFA84FA504611F096FC0028F5D01A
:104FB40004EB8405C4EBC5051F4B1D44AB7C0F2BD0
:104FC400ECD801220DF10701504611F091FC0028A4
:104FD400DED09DF80710DDE70EF0E2F904460D4639
:104FE400C31B61EB0903002B18DAA31B65EB080351
:104FF400002B0CDBFEF772FAFEF70EFD0646FEF7F9
:1050040065FE864200D80646361945F1000800219F
:105014004FF0FF3011F0A0F9002492E7FEF70CFBEB
:10502400FEF7FAFC0746FEF723FE874200D8074640
:105034003F1945F10009D8E73821072008B50138A0
:1050440000EB8003C0EBC300044B1844837C13B112
:10505400FFF738FF08BD4FF0FF30FBE7382107208A
:10506400013800EB8003C0EBC300054B034493F805
:1050740025300F2B01D9002070470120704700BF55
:1050840038210720064B1B6823B128B1042805D911
:1050940000207047002070470020704701207047AF
:1050A400D421072038B504460D462046FFF7D8FF23
:1050B4000128FAD1013C04EB8403C4EBC30404F1DA
:1050C4001000064B18440330234493F825300F2B6B
:1050D40000D938BD2946FFF7C5FEFAE73821072075
:1050E400013800EB8003C0EBC300034B03440122EF
:1050F40083F82620704700BF38210720014B012286
:105104001A607047D4210720014B00221A607047AF
:10511400D421072008B503480EF01AF802480FF00E
:105124004BFD08BD84060220554E002010B50446F0
:1051340040F23653984227D00846022215490BF014
:1051440073F8B0F1FF3F16D0124B18781B2813D810
:1051540040F231539C4219D10DF09CFB0D4B1A784F
:105164004FF0010141EC44205B78003B18BF012360
:1051740043EC4020002010BD074B13221A75002277
:105184005A754FF0FF30F6E71C20F4E74FF0FF307C
:10519400F1E700BF24110220142E022000487047BA
:1051A40018B801200048704704B7012060B9104BBB
:1051B40040F209425A80012301335B009BB20C4840
:1051C40043F440730380704704280ED8094A52F808
:1051D40020000023122BEFD8C25C002AECD001334C
:1051E400034921F81320DBB2F4E70020704700BF25
:1051F40090060220F0B601200FB400B583B004ABD2
:1052040053F8042B01937AB1084C019BA02120464A
:105214000FF0FAFA064804F0CBFB204604F0C8FB72
:10522400044804F0C5FBFEE7034AEDE7BCDC0120BB
:10523400C48E0120A0A40120BC8E012010F00F0018
:1052440007D10F4BDA689B681B699A4213D200207E
:1052540070470B4AD3689268411E133052F82000FD
:1052640083420AD2043102EB810252681344044A95
:10527400D36000207047012070470120704700BFB1
:1052840034D9012010B5044602098C20244B00FBBC
:105294000233244A9360117101290AD002290FD0E4
:1052A40091B1214B05221A7500225A754FF0FF3037
:1052B40010BD092004F080FA30B14FF0FF30F7E759
:1052C4001A4B1A88174B5A71174AD2F80811154B02
:1052D4001982D2F80011D960D2F80C211A60204644
:1052E400FFF7ACFF0028DCD100240E4B1B8AABB1C6
:1052F4000C4B9B685B68984701460028D1D0094B4A
:10530400188A8AB2801A1882224494B21A6802EB6C
:1053140041221A60DA680A44DA60E6E76002C7E705
:1053240048D9012034D90120142E02201822072044
:10533400030900F00F013F2813D80F4A8C2000FB0B
:10534400032212696AB1A1B1013903EB8303C3EBF0
:10535400C3030B441433084A52F823300BB1002022
:105364007047064B13221A7500225A754FF0FF300E
:1053740070470020704700BF48D90120142E022036
:1053840008B5034B01229A74FFF77CFF08BD00BFE8
:1053940034D9012008B5034B00229A74FFF772FF39
:1053A40008BD00BF34D9012070B582B004460B4655
:1053B400114606094FF08C0C1E4D0CFB06551E4E73
:1053C400B56040F2071C63451DD044F203129342BA
:1053D40005D0B3F5837F06D04FF0FF301DE0AB68F6
:1053E4000BB3984719E0EB68FBB108460AF039FFA4
:1053F400114BD8602046FFF721FFC0B90E4B9B68C4
:10540400DB68984709E010F00F0408D12B69019379
:1054140004220DEB02000AF02FFF02B070BD13341A
:1054240055F82430F3E70020F7E70020F5E74FF0C4
:10543400FF30F2E748D9012034D9012008B50648E5
:10544400064B984203D843682BB18C30F8E70448E4
:1054540004F0AEFA002008BD48D90120ECDA01209E
:10546400D88E012008B5084BC31A9B10074A02FBCB
:1054740003F3074A906003F1610000F071F80A2019
:10548400FEF784FD08BD00BF48D901208BAFF88A20
:1054940034D9012038B50C46054610B9214B1B7888
:1054A4003BBB214B53F82520204B1A60012C28D0FC
:1054B400012C14BF002401241D4B1C701D4BD3F878
:1054C4000C111D4A1160D3F80011184A136803EB3C
:1054D40041231360194A52F825108B4219D2184AF5
:1054E40012881344994214D30CF0E6F9144B18882B
:1054F40038BD104B1E221A7500225A754FF0FF302A
:10550400F6E7092004F058F90028D1D04FF0FF3015
:10551400EEE7084B05221A7500225A754FF0FF304A
:10552400E6E700BF422207202CB80120EC0B07203D
:1055340041220720142E0220E80B072034B8012052
:1055440010220720012801D100207047034B0622B6
:105554001A7500225A754FF0FF307047142E02203E
:105564002DE9F04781460146474804F06FFC04F0FA
:1055740053FB0646454B01229A7400271F7118609D
:10558400DF603D46BA4652E006F5BF7007F008FCFE
:1055940061E03E4BD3F80CA03D4804F009FA042521
:1055A4005DE00F2B29D0852B27D004F11C0306EBDB
:1055B4000313D3F80610354A906841442A1D00EBC2
:1055C40082025160D3F80A2005F1140340F8232025
:1055D40001352A4649462F4804F038FC0134032C8F
:1055E40021D80E2D1FD806EB041393F8C231052BD6
:1055F40003D0D6D8002BF1D0D7E704F11C0306EB77
:105604000313D3F806305344204AD360032DE5D85E
:1056140004F11C0306EB0313002202219972DA72CF
:105624001A735A73C1E70137184BDB68EBB1174B98
:1056340001221A829B685B689847B0B1B6F8FE21D4
:105644004AF655239A4210D12FB9B6F87C2145F673
:10565400B5639A4298D0312F07D8012F99D00B4BBC
:10566400D3F80C800024DC60B9E7BAF1000F01D054
:10567400032D04D8304604F020FABDE8F08706482C
:1056840004F096F9F6E700BFE88E012034D9012032
:10569400F08E0120F48E0120FC8E012070B582B0C2
:1056A400FAF74EFF0020FAF73BFF142402E0FAF762
:1056B40061FF013C002CFAD10021402000F03AF9AE
:1056C400012804D000F008F9204602B070BD14206F
:1056D40009F0FCFF05464FF4D571482000F02AF983
:1056E40001284CD1264607E0FAF744FF06F10803E7
:1056F4006B4403F8040C0136032EF5D99DF80630EB
:10570400012B16D19DF80730AA2B5CD1284609F04D
:10571400F1FF30B94FF08041E92000F00BF9002887
:10572400F4D1284609F0E6FF38B100F0D5F800249A
:10573400CAE700F0D1F80024C6E700217A2000F07F
:10574400F9F858B100F0C8F80024BDE7FAF712FFE1
:1057540004F108036B4403F8040C0134032CF5D959
:105764009DF8043013F0400F07D0C02600F0B4F8C1
:105774000120FAF7D5FE3446A6E74026F6E70021D5
:10578400E92000F0D7F801281ADD10264124284624
:1057940009F0B0FF28B90021204600F0CBF800281A
:1057A400F5D1284609F0A6FF30B94FF40071502016
:1057B40000F0C0F8044650B100F08EF8002483E7EE
:1057C4002026E924E3E700F087F800247CE700F0D2
:1057D40083F8002E3FF478AFCAE7000030B585B0F7
:1057E4000146344B1860344804F030FBFFF756FF91
:1057F40030F0800319D00446FFF720FE054690B12F
:105804002E4B43602B4B1B6803F00F0323430370A1
:105814000021492000F08EF858B100F05DF8002115
:105824002846FFF71FFE05B030BD254804F00EFBE7
:10583400F9E700F063F8FE28EFD1002408E0FAF756
:1058440099FE04F110036B4403F8100C0134E4B224
:105854000F2CF4D99DF800309B09012B20D09DF822
:10586400052002F00F029DF80A3002EBD3129DF8D6
:1058740009305B0003F006031A449DF808109DF8F4
:1058840007309B0003EB91139DF80610890201F485
:1058940040610B4401332B61073A93402B61BCE711
:1058A4009DF809309DF8082003EB022301339B0285
:1058B4002B61B2E750C00120008F0120ED58002079
:1058C400108F012010B5002404B110BD2046FFF74D
:1058D40085FF0134E4B2F7E708B5074B1B7833B111
:1058E400FAF748FE0028FBD0034B00221A70FAF79F
:1058F40027FEFAF73FFE08BD2F22072070B50546A4
:10590400052009F0E3FE064605E0FF280ED13046E7
:1059140009F0F0FE38B9FAF72DFE0446002DF4D054
:10592400FF28F4D102E0024804F042F8204670BD9A
:10593400208F012038B504460D46FFF7CDFF14F043
:10594400800F07D004F07F0400217720FFF7F2FFD7
:1059540001282CD8FFF7C0FFFAF7F8FD402C04D03B
:105964000120FFF7CBFFFF2826D12046FAF7F4FDEC
:10597400280EFAF7F1FDC5F30740FAF7EDFDC5F37C
:105984000720FAF7E9FDE8B2FAF7E6FD402C0FD05C
:10599400482C0FD00120FAF7DFFDFAF7EBFD1424B1
:1059A400FAF7E8FD10F0800F01D0013CF8D138BDC2
:1059B4009520F0E78720EEE7FF20F8E738B5364B6F
:1059C4009B681B7803F00F03344A136000242DE016
:1059D400582032E0304BD96838E00120FFF78EFFC1
:1059E400FF2815D1FE20FAF7B7FDFAF7E3FDFF20F3
:1059F400FAF7B2FDFF20FAF7AFFD0020FFF77EFFB4
:105A040000F01F05052D14BF0025012500E0002529
:105A1400214B9B7C002B2BD1214B01221A70002D92
:105A24002CD1204803F0C4FF0134E4B2072C2AD857
:105A3400194B9B7C002BCBD05120174B9B6893F9BF
:105A44000030002BC6DB144BD9684902FFF772FF04
:105A54000028DCD1104B9D7C002DBED0FFF74EFFFB
:105A6400FE280CBF01250025D2D1FAF793FDCFE71C
:105A7400FFF732FF0A4B00221A70D0E7074BFF22D0
:105A84001A60012007E0084B002005221A7558759A
:105A9400024BFF221A6038BD34D9012050C00120C6
:105AA4002F220720308F0120142E02200131436859
:105AB4008B4200D8002108467047024601F1010CD0
:105AC400881C117A01238B40013B184200D06046A8
